{
  "address": "0xaca81583840B1bf2dDF6CDe824ada250C1936B4D",
  "abi": [
    {
      "inputs": [],
      "name": "acceptAll",
      "outputs": [],
      "stateMutability": "nonpayable",
      "type": "function"
    },
    {
      "inputs": [
        {
          "internalType": "address",
          "name": "",
          "type": "address"
        },
        {
          "internalType": "address",
          "name": "",
          "type": "address"
        },
        {
          "internalType": "uint256[]",
          "name": "",
          "type": "uint256[]"
        },
        {
          "internalType": "uint256[]",
          "name": "",
          "type": "uint256[]"
        },
        {
          "internalType": "bytes",
          "name": "",
          "type": "bytes"
        }
      ],
      "name": "onERC1155BatchReceived",
      "outputs": [
        {
          "internalType": "bytes4",
          "name": "",
          "type": "bytes4"
        }
      ],
      "stateMutability": "view",
      "type": "function"
    },
    {
      "inputs": [
        {
          "internalType": "address",
          "name": "",
          "type": "address"
        },
        {
          "internalType": "address",
          "name": "",
          "type": "address"
        },
        {
          "internalType": "uint256",
          "name": "",
          "type": "uint256"
        },
        {
          "internalType": "uint256",
          "name": "",
          "type": "uint256"
        },
        {
          "internalType": "bytes",
          "name": "",
          "type": "bytes"
        }
      ],
      "name": "onERC1155Received",
      "outputs": [
        {
          "internalType": "bytes4",
          "name": "",
          "type": "bytes4"
        }
      ],
      "stateMutability": "view",
      "type": "function"
    },
    {
      "inputs": [],
      "name": "rejectAll",
      "outputs": [],
      "stateMutability": "nonpayable",
      "type": "function"
    },
    {
      "inputs": [],
      "name": "revertAll",
      "outputs": [],
      "stateMutability": "nonpayable",
      "type": "function"
    },
    {
      "inputs": [
        {
          "internalType": "bytes4",
          "name": "interfaceId",
          "type": "bytes4"
        }
      ],
      "name": "supportsInterface",
      "outputs": [
        {
          "internalType": "bool",
          "name": "",
          "type": "bool"
        }
      ],
      "stateMutability": "pure",
      "type": "function"
    }
  ],
  "transactionHash": "0x9bd1a53b941906144a3d23a71e65309e227b3fbe9ceb62f9f4554a1e20f31908",
  "args": [],
  "numDeployments": 1,
  "solcInputHash": "29e6c251a46367ebfca0380b3613092f",
  "bytecode": "0x60806040526000805461ffff1916600117905534801561001e57600080fd5b5061059e8061002e6000396000f3fe608060405234801561001057600080fd5b50600436106100725760003560e01c80634e42757f116100505780634e42757f14610144578063bc197c8114610171578063f23a6e61146101b557600080fd5b806301ffc9a7146100775780630ea1cbf6146100e1578063372b041214610113575b600080fd5b6100cc610085366004610335565b7fffffffff00000000000000000000000000000000000000000000000000000000167f4e2312e0000000000000000000000000000000000000000000000000000000001490565b60405190151581526020015b60405180910390f35b610111600080547fffffffffffffffffffffffffffffffffffffffffffffffffffffffffffff0000166001179055565b005b610111600080547fffffffffffffffffffffffffffffffffffffffffffffffffffffffffffff00ff16610100179055565b610111600080547fffffffffffffffffffffffffffffffffffffffffffffffffffffffffffff0000169055565b61018461017f366004610435565b6101c8565b6040517fffffffff0000000000000000000000000000000000000000000000000000000090911681526020016100d8565b6101846101c33660046104f0565b610282565b60008054610100900460ff1615610240576040517f08c379a000000000000000000000000000000000000000000000000000000000815260206004820152600d60248201527f526576657274696e6720616c6c0000000000000000000000000000000000000060448201526064015b60405180910390fd5b60005460ff161561027257507fbc197c819b3e337a6f9652dd10becd7eef83032af3b9d958d3d42f6694146621610276565b5060005b98975050505050505050565b60008054610100900460ff16156102f5576040517f08c379a000000000000000000000000000000000000000000000000000000000815260206004820152600d60248201527f526576657274696e6720616c6c000000000000000000000000000000000000006044820152606401610237565b60005460ff161561032757507ff23a6e612e1ff4830e658fe43f4e3cb4a5f8170bd5d9e69fb5d7a7fa9e4fdf9761032b565b5060005b9695505050505050565b60006020828403121561034757600080fd5b81357fffffffff000000000000000000000000000000000000000000000000000000008116811461037757600080fd5b9392505050565b803573ffffffffffffffffffffffffffffffffffffffff811681146103a257600080fd5b919050565b60008083601f8401126103b957600080fd5b50813567ffffffffffffffff8111156103d157600080fd5b6020830191508360208260051b85010111156103ec57600080fd5b9250929050565b60008083601f84011261040557600080fd5b50813567ffffffffffffffff81111561041d57600080fd5b6020830191508360208285010111156103ec57600080fd5b60008060008060008060008060a0898b03121561045157600080fd5b61045a8961037e565b975061046860208a0161037e565b9650604089013567ffffffffffffffff8082111561048557600080fd5b6104918c838d016103a7565b909850965060608b01359150808211156104aa57600080fd5b6104b68c838d016103a7565b909650945060808b01359150808211156104cf57600080fd5b506104dc8b828c016103f3565b999c989b5096995094979396929594505050565b60008060008060008060a0878903121561050957600080fd5b6105128761037e565b95506105206020880161037e565b94506040870135935060608701359250608087013567ffffffffffffffff81111561054a57600080fd5b61055689828a016103f3565b979a969950949750929593949250505056fea26469706673582212207d40cfe91aec3e91867fcbea0a75062b75fb355c7bf4efd5ab58d023c562fee964736f6c634300080d0033",
  "devdoc": {
    "kind": "dev",
    "methods": {
      "supportsInterface(bytes4)": {
        "details": "Returns true if this contract implements the interface defined by `interfaceId`. See the corresponding https://eips.ethereum.org/EIPS/eip-165#how-interfaces-are-identified[EIP section] to learn more about how these ids are created. This function call must use less than 30 000 gas."
      }
    },
    "version": 1
  },
  "userdoc": {
    "kind": "user",
    "methods": {},
    "version": 1
  },
  "storageLayout": {
    "storage": [
      {
        "astId": 3448,
        "contract": "contracts/test/IERC1155ReceiverMock.sol:IERC1155ReceiverMock",
        "label": "_acceptAll",
        "offset": 0,
        "slot": "0",
        "type": "t_bool"
      },
      {
        "astId": 3451,
        "contract": "contracts/test/IERC1155ReceiverMock.sol:IERC1155ReceiverMock",
        "label": "_revertAll",
        "offset": 1,
        "slot": "0",
        "type": "t_bool"
      }
    ],
    "types": {
      "t_bool": {
        "encoding": "inplace",
        "label": "bool",
        "numberOfBytes": "1"
      }
    }
  }
}