{
  "address": "0x26B862f640357268Bd2d9E95bc81553a2Aa81D7E",
  "abi": [
    {
      "inputs": [
        {
          "internalType": "address",
          "name": "tileContract",
          "type": "address"
        },
        {
          "internalType": "string",
          "name": "apiUrl",
          "type": "string"
        },
        {
          "internalType": "address",
          "name": "proxyRegistryAddress",
          "type": "address"
        }
      ],
      "stateMutability": "nonpayable",
      "type": "constructor"
    },
    {
      "anonymous": false,
      "inputs": [
        {
          "indexed": true,
          "internalType": "address",
          "name": "account",
          "type": "address"
        },
        {
          "indexed": true,
          "internalType": "address",
          "name": "operator",
          "type": "address"
        },
        {
          "indexed": false,
          "internalType": "bool",
          "name": "approved",
          "type": "bool"
        }
      ],
      "name": "ApprovalForAll",
      "type": "event"
    },
    {
      "anonymous": false,
      "inputs": [
        {
          "indexed": true,
          "internalType": "address",
          "name": "previousOwner",
          "type": "address"
        },
        {
          "indexed": true,
          "internalType": "address",
          "name": "newOwner",
          "type": "address"
        }
      ],
      "name": "OwnershipTransferred",
      "type": "event"
    },
    {
      "anonymous": false,
      "inputs": [
        {
          "indexed": true,
          "internalType": "address",
          "name": "operator",
          "type": "address"
        },
        {
          "indexed": true,
          "internalType": "address",
          "name": "from",
          "type": "address"
        },
        {
          "indexed": true,
          "internalType": "address",
          "name": "to",
          "type": "address"
        },
        {
          "indexed": false,
          "internalType": "uint256[]",
          "name": "ids",
          "type": "uint256[]"
        },
        {
          "indexed": false,
          "internalType": "uint256[]",
          "name": "values",
          "type": "uint256[]"
        }
      ],
      "name": "TransferBatch",
      "type": "event"
    },
    {
      "anonymous": false,
      "inputs": [
        {
          "indexed": true,
          "internalType": "address",
          "name": "operator",
          "type": "address"
        },
        {
          "indexed": true,
          "internalType": "address",
          "name": "from",
          "type": "address"
        },
        {
          "indexed": true,
          "internalType": "address",
          "name": "to",
          "type": "address"
        },
        {
          "indexed": false,
          "internalType": "uint256",
          "name": "id",
          "type": "uint256"
        },
        {
          "indexed": false,
          "internalType": "uint256",
          "name": "value",
          "type": "uint256"
        }
      ],
      "name": "TransferSingle",
      "type": "event"
    },
    {
      "anonymous": false,
      "inputs": [
        {
          "indexed": false,
          "internalType": "string",
          "name": "value",
          "type": "string"
        },
        {
          "indexed": true,
          "internalType": "uint256",
          "name": "id",
          "type": "uint256"
        }
      ],
      "name": "URI",
      "type": "event"
    },
    {
      "inputs": [
        {
          "internalType": "address",
          "name": "account",
          "type": "address"
        },
        {
          "internalType": "uint256",
          "name": "id",
          "type": "uint256"
        }
      ],
      "name": "balanceOf",
      "outputs": [
        {
          "internalType": "uint256",
          "name": "",
          "type": "uint256"
        }
      ],
      "stateMutability": "view",
      "type": "function"
    },
    {
      "inputs": [
        {
          "internalType": "address[]",
          "name": "accounts",
          "type": "address[]"
        },
        {
          "internalType": "uint256[]",
          "name": "ids",
          "type": "uint256[]"
        }
      ],
      "name": "balanceOfBatch",
      "outputs": [
        {
          "internalType": "uint256[]",
          "name": "",
          "type": "uint256[]"
        }
      ],
      "stateMutability": "view",
      "type": "function"
    },
    {
      "inputs": [
        {
          "internalType": "uint256",
          "name": "patchId",
          "type": "uint256"
        },
        {
          "internalType": "address",
          "name": "from",
          "type": "address"
        }
      ],
      "name": "breakPatchFrom",
      "outputs": [],
      "stateMutability": "nonpayable",
      "type": "function"
    },
    {
      "inputs": [
        {
          "internalType": "uint256",
          "name": "firstPatchId",
          "type": "uint256"
        },
        {
          "internalType": "uint256",
          "name": "secondPatchId",
          "type": "uint256"
        },
        {
          "internalType": "address",
          "name": "to",
          "type": "address"
        }
      ],
      "name": "combinePatches",
      "outputs": [],
      "stateMutability": "nonpayable",
      "type": "function"
    },
    {
      "inputs": [],
      "name": "contractURI",
      "outputs": [
        {
          "internalType": "string",
          "name": "",
          "type": "string"
        }
      ],
      "stateMutability": "view",
      "type": "function"
    },
    {
      "inputs": [
        {
          "internalType": "uint256",
          "name": "id",
          "type": "uint256"
        }
      ],
      "name": "getOwningAddress",
      "outputs": [
        {
          "internalType": "address",
          "name": "",
          "type": "address"
        }
      ],
      "stateMutability": "view",
      "type": "function"
    },
    {
      "inputs": [
        {
          "internalType": "uint256[]",
          "name": "ids",
          "type": "uint256[]"
        }
      ],
      "name": "getOwningAddressBatch",
      "outputs": [
        {
          "internalType": "address[]",
          "name": "",
          "type": "address[]"
        }
      ],
      "stateMutability": "view",
      "type": "function"
    },
    {
      "inputs": [
        {
          "internalType": "uint256",
          "name": "id",
          "type": "uint256"
        }
      ],
      "name": "getTileOwner",
      "outputs": [
        {
          "internalType": "address",
          "name": "",
          "type": "address"
        }
      ],
      "stateMutability": "view",
      "type": "function"
    },
    {
      "inputs": [
        {
          "internalType": "uint256[]",
          "name": "ids",
          "type": "uint256[]"
        }
      ],
      "name": "getTileOwnerBatch",
      "outputs": [
        {
          "internalType": "address[]",
          "name": "",
          "type": "address[]"
        }
      ],
      "stateMutability": "view",
      "type": "function"
    },
    {
      "inputs": [
        {
          "internalType": "address",
          "name": "account",
          "type": "address"
        },
        {
          "internalType": "address",
          "name": "operator",
          "type": "address"
        }
      ],
      "name": "isApprovedForAll",
      "outputs": [
        {
          "internalType": "bool",
          "name": "",
          "type": "bool"
        }
      ],
      "stateMutability": "view",
      "type": "function"
    },
    {
      "inputs": [
        {
          "components": [
            {
              "internalType": "int256",
              "name": "x",
              "type": "int256"
            },
            {
              "internalType": "int256",
              "name": "y",
              "type": "int256"
            },
            {
              "internalType": "uint256",
              "name": "width",
              "type": "uint256"
            },
            {
              "internalType": "uint256",
              "name": "height",
              "type": "uint256"
            }
          ],
          "internalType": "struct Patch.Rectangle",
          "name": "patchBounds",
          "type": "tuple"
        },
        {
          "internalType": "address",
          "name": "to",
          "type": "address"
        }
      ],
      "name": "mintPatchTo",
      "outputs": [],
      "stateMutability": "nonpayable",
      "type": "function"
    },
    {
      "inputs": [],
      "name": "mintedTokens",
      "outputs": [
        {
          "internalType": "uint256",
          "name": "",
          "type": "uint256"
        }
      ],
      "stateMutability": "view",
      "type": "function"
    },
    {
      "inputs": [],
      "name": "owner",
      "outputs": [
        {
          "internalType": "address",
          "name": "",
          "type": "address"
        }
      ],
      "stateMutability": "view",
      "type": "function"
    },
    {
      "inputs": [],
      "name": "renounceOwnership",
      "outputs": [],
      "stateMutability": "nonpayable",
      "type": "function"
    },
    {
      "inputs": [
        {
          "internalType": "uint256",
          "name": "",
          "type": "uint256"
        },
        {
          "internalType": "uint256",
          "name": "value",
          "type": "uint256"
        }
      ],
      "name": "royaltyInfo",
      "outputs": [
        {
          "internalType": "address",
          "name": "receiver",
          "type": "address"
        },
        {
          "internalType": "uint256",
          "name": "royaltyAmount",
          "type": "uint256"
        }
      ],
      "stateMutability": "view",
      "type": "function"
    },
    {
      "inputs": [
        {
          "internalType": "address",
          "name": "from",
          "type": "address"
        },
        {
          "internalType": "address",
          "name": "to",
          "type": "address"
        },
        {
          "internalType": "uint256[]",
          "name": "ids",
          "type": "uint256[]"
        },
        {
          "internalType": "uint256[]",
          "name": "amounts",
          "type": "uint256[]"
        },
        {
          "internalType": "bytes",
          "name": "data",
          "type": "bytes"
        }
      ],
      "name": "safeBatchTransferFrom",
      "outputs": [],
      "stateMutability": "nonpayable",
      "type": "function"
    },
    {
      "inputs": [
        {
          "internalType": "address",
          "name": "from",
          "type": "address"
        },
        {
          "internalType": "address",
          "name": "to",
          "type": "address"
        },
        {
          "internalType": "uint256",
          "name": "id",
          "type": "uint256"
        },
        {
          "internalType": "uint256",
          "name": "amount",
          "type": "uint256"
        },
        {
          "internalType": "bytes",
          "name": "data",
          "type": "bytes"
        }
      ],
      "name": "safeTransferFrom",
      "outputs": [],
      "stateMutability": "nonpayable",
      "type": "function"
    },
    {
      "inputs": [
        {
          "internalType": "address",
          "name": "operator",
          "type": "address"
        },
        {
          "internalType": "bool",
          "name": "approved",
          "type": "bool"
        }
      ],
      "name": "setApprovalForAll",
      "outputs": [],
      "stateMutability": "nonpayable",
      "type": "function"
    },
    {
      "inputs": [
        {
          "internalType": "string",
          "name": "newBaseUrl",
          "type": "string"
        }
      ],
      "name": "setBaseUrl",
      "outputs": [],
      "stateMutability": "nonpayable",
      "type": "function"
    },
    {
      "inputs": [
        {
          "components": [
            {
              "internalType": "address",
              "name": "target",
              "type": "address"
            },
            {
              "internalType": "uint8",
              "name": "points",
              "type": "uint8"
            }
          ],
          "internalType": "struct ERC1155NFT.RoyaltyConfig",
          "name": "newConfig",
          "type": "tuple"
        }
      ],
      "name": "setRoyaltyConfig",
      "outputs": [],
      "stateMutability": "nonpayable",
      "type": "function"
    },
    {
      "inputs": [
        {
          "internalType": "bytes4",
          "name": "interfaceId",
          "type": "bytes4"
        }
      ],
      "name": "supportsInterface",
      "outputs": [
        {
          "internalType": "bool",
          "name": "",
          "type": "bool"
        }
      ],
      "stateMutability": "view",
      "type": "function"
    },
    {
      "inputs": [
        {
          "internalType": "address",
          "name": "newOwner",
          "type": "address"
        }
      ],
      "name": "transferOwnership",
      "outputs": [],
      "stateMutability": "nonpayable",
      "type": "function"
    },
    {
      "inputs": [
        {
          "internalType": "uint256",
          "name": "id",
          "type": "uint256"
        }
      ],
      "name": "uri",
      "outputs": [
        {
          "internalType": "string",
          "name": "",
          "type": "string"
        }
      ],
      "stateMutability": "view",
      "type": "function"
    },
    {
      "inputs": [
        {
          "internalType": "address payable",
          "name": "wallet",
          "type": "address"
        },
        {
          "internalType": "uint256",
          "name": "amount",
          "type": "uint256"
        }
      ],
      "name": "withdraw",
      "outputs": [],
      "stateMutability": "nonpayable",
      "type": "function"
    }
  ],
  "transactionHash": "0x7d8d3fbbf42ac9bbc1f2380a7748e72f008ac9b9ef3e3f297f3daf409e0b33ca",
  "args": [
    "0x70bDA08DBe07363968e9EE53d899dFE48560605B",
    "https://pixels.watch/api/v1/",
    "0xefAB0Beb0A557E452b398035eA964948c750b2Fd"
  ],
  "numDeployments": 1,
  "solcInputHash": "29e6c251a46367ebfca0380b3613092f",
  "bytecode": "0x60806040526000600155600780546001600160a01b03191690553480156200002657600080fd5b50604051620045e0380380620045e0833981016040819052620000499162000261565b816040516020016200005c919062000341565b60408051808303601f1901815291905281620000783362000105565b81516200008d90600590602085019062000155565b50600380546001600160a01b03199081166001600160a01b039384161790915560408051808201909152338082526046602090920191909152600680546001600160a81b03191660ff60a01b1990921691909117602360a11b17905560078054909116959091169490941790935550620003ab915050565b600080546001600160a01b038381166001600160a01b0319831681178455604051919092169283917f8be0079c531659141344cd1fd0a4f28419497f9722a3daafe3b4186f6b6457e09190a35050565b82805462000163906200036f565b90600052602060002090601f016020900481019282620001875760008555620001d2565b82601f10620001a257805160ff1916838001178555620001d2565b82800160010185558215620001d2579182015b82811115620001d2578251825591602001919060010190620001b5565b50620001e0929150620001e4565b5090565b5b80821115620001e05760008155600101620001e5565b80516001600160a01b03811681146200021357600080fd5b919050565b634e487b7160e01b600052604160045260246000fd5b60005b838110156200024b57818101518382015260200162000231565b838111156200025b576000848401525b50505050565b6000806000606084860312156200027757600080fd5b6200028284620001fb565b60208501519093506001600160401b0380821115620002a057600080fd5b818601915086601f830112620002b557600080fd5b815181811115620002ca57620002ca62000218565b604051601f8201601f19908116603f01168101908382118183101715620002f557620002f562000218565b816040528281528960208487010111156200030f57600080fd5b620003228360208301602088016200022e565b80965050505050506200033860408501620001fb565b90509250925092565b60008251620003558184602087016200022e565b67706174636865732f60c01b920191825250600801919050565b600181811c908216806200038457607f821691505b602082108103620003a557634e487b7160e01b600052602260045260246000fd5b50919050565b61422580620003bb6000396000f3fe608060405234801561001057600080fd5b50600436106101975760003560e01c80638d75fe05116100e3578063e8a3d4851161008c578063f242432a11610066578063f242432a146103b3578063f2fde38b146103c6578063f3fef3a3146103d957600080fd5b8063e8a3d48514610385578063e985e9c51461038d578063ee006bbf146103a057600080fd5b8063afec362f116100bd578063afec362f1461034c578063c494975f1461035f578063c7c3268b1461037257600080fd5b80638d75fe05146103125780638da5cb5b1461031b578063a22cb4651461033957600080fd5b80633a55c40911610145578063535597b51161011f578063535597b5146102bf578063715018a6146102f757806371be7faf146102ff57600080fd5b80633a55c4091461026c5780634da488b61461028c5780634e1273f41461029f57600080fd5b80630e89341c116101765780630e89341c146101fa5780632a55205a1461021a5780632eb2c2d61461025957600080fd5b8062fdd58e1461019c57806301ffc9a7146101c2578063044e73f8146101e5575b600080fd5b6101af6101aa366004613167565b6103ec565b6040519081526020015b60405180910390f35b6101d56101d03660046131c1565b610542565b60405190151581526020016101b9565b6101f86101f33660046131e5565b610671565b005b61020d61020836600461321e565b610ee6565b6040516101b991906132b1565b61022d6102283660046132c4565b610f85565b6040805173ffffffffffffffffffffffffffffffffffffffff90931683526020830191909152016101b9565b6101f8610267366004613491565b610fdf565b61027f61027a36600461353f565b611082565b6040516101b99190613574565b6101f861029a3660046135ce565b611190565b6102b26102ad366004613633565b61127f565b6040516101b9919061373b565b6102d26102cd36600461321e565b6113b1565b60405173ffffffffffffffffffffffffffffffffffffffff90911681526020016101b9565b6101f86113ee565b6102d261030d36600461321e565b61147b565b6101af60015481565b60005473ffffffffffffffffffffffffffffffffffffffff166102d2565b6101f861034736600461374e565b61149f565b6101f861035a36600461378c565b6114ae565b61027f61036d36600461353f565b611847565b6101f861038036600461380b565b61193b565b61020d6119cf565b6101d561039b366004613854565b6119f7565b6101f86103ae366004613882565b611af5565b6101f86103c13660046138a7565b611e98565b6101f86103d4366004613910565b612009565b6101f86103e7366004613167565b612139565b600073ffffffffffffffffffffffffffffffffffffffff8316610470576040517f08c379a000000000000000000000000000000000000000000000000000000000815260206004820152601f60248201527f455243313135353a2062616c616e636520666f7220616464726573732830290060448201526064015b60405180910390fd5b60015482106104db576040517f08c379a000000000000000000000000000000000000000000000000000000000815260206004820152601460248201527f546f6b656e20646f6573206e6f742065786973740000000000000000000000006044820152606401610467565b8273ffffffffffffffffffffffffffffffffffffffff16600283815481106105055761050561392d565b60009182526020909120015473ffffffffffffffffffffffffffffffffffffffff1614610533576000610536565b60015b60ff1690505b92915050565b60007fffffffff0000000000000000000000000000000000000000000000000000000082167fd9b67a260000000000000000000000000000000000000000000000000000000014806105d557507fffffffff0000000000000000000000000000000000000000000000000000000082167f0e89341c00000000000000000000000000000000000000000000000000000000145b8061062157507fffffffff0000000000000000000000000000000000000000000000000000000082167f2a55205a00000000000000000000000000000000000000000000000000000000145b8061053c57507f01ffc9a7000000000000000000000000000000000000000000000000000000007fffffffff0000000000000000000000000000000000000000000000000000000083161461053c565b60008381526008602081815260408084208151608080820184528254825260018084015483870152600280850154848701526003948501546060808601919091528b8a52978752858920865180850188528154815292810154838901529081015482870152909301548387015283519081018452868152938401869052918301859052928201939093528151835103610896578160400151836040015114610775576040517f08c379a000000000000000000000000000000000000000000000000000000000815260206004820152601060248201527f4d69736d6174636865642073697a6573000000000000000000000000000000006044820152606401610467565b81606001518260200151610789919061398b565b8360200151036107d9576040518060800160405280836000015181526020018360200151815260200183604001518152602001846060015184606001516107d091906139ff565b90529050610a36565b826060015183602001516107ed919061398b565b826020015103610834576040518060800160405280846000015181526020018460200151815260200184604001518152602001836060015185606001516107d091906139ff565b6040517f08c379a000000000000000000000000000000000000000000000000000000000815260206004820152600c60248201527f4e6f742061646a6163656e7400000000000000000000000000000000000000006044820152606401610467565b81602001518360200151036109d4578160600151836060015114610916576040517f08c379a000000000000000000000000000000000000000000000000000000000815260206004820152601060248201527f4d69736d6174636865642073697a6573000000000000000000000000000000006044820152606401610467565b60408201518251610927919061398b565b83510361097557604051806080016040528083600001518152602001836020015181526020018460400151846040015161096191906139ff565b815260200183606001518152509050610a36565b60408301518351610986919061398b565b8251036108345760405180608001604052808460000151815260200184602001518152602001836040015185604001516109c091906139ff565b815260200184606001518152509050610a36565b6040517f08c379a000000000000000000000000000000000000000000000000000000000815260206004820152601e60248201527f526573756c74696e67207368617065206e6f742072656374616e676c652e00006044820152606401610467565b6001805460009182610a4783613a17565b90915550600081815260086020908152604080832086518155918601516001830155850151600282015560608501516003909101559091505b8260400151811015610afc5760005b8360600151811015610ae9576000610ac5838660000151610ab0919061398b565b838760200151610ac0919061398b565b612202565b60009081526009602052604090208490555080610ae181613a17565b915050610a8f565b5080610af481613a17565b915050610a80565b506002805460018101825560008281527f405787fa12a823e0f2b7631cc41b3ba8828b3321ca811111fa75cd3aa3bb5ace90910180547fffffffffffffffffffffffff00000000000000000000000000000000000000001673ffffffffffffffffffffffffffffffffffffffff8916179055604080518381526060810182529192906020830190803683370190505090508781600081518110610ba157610ba161392d565b6020026020010181815250508681600181518110610bc157610bc161392d565b602090810291909101015260408051600280825260608201909252600091816020016020820280368337019050509050600181600081518110610c0657610c0661392d565b602002602001018181525050600181600181518110610c2757610c2761392d565b6020026020010181815250508673ffffffffffffffffffffffffffffffffffffffff1660028a81548110610c5d57610c5d61392d565b60009182526020909120015473ffffffffffffffffffffffffffffffffffffffff1614610ce6576040517f08c379a000000000000000000000000000000000000000000000000000000000815260206004820152601d60248201527f455243313135353a20696e73756666696369656e742062616c616e63650000006044820152606401610467565b600060028a81548110610cfb57610cfb61392d565b600091825260209091200180547fffffffffffffffffffffffff00000000000000000000000000000000000000001673ffffffffffffffffffffffffffffffffffffffff92831617905560028054918916918a908110610d5d57610d5d61392d565b60009182526020909120015473ffffffffffffffffffffffffffffffffffffffff1614610de6576040517f08c379a000000000000000000000000000000000000000000000000000000000815260206004820152601d60248201527f455243313135353a20696e73756666696369656e742062616c616e63650000006044820152606401610467565b600060028981548110610dfb57610dfb61392d565b6000918252602082200180547fffffffffffffffffffffffff00000000000000000000000000000000000000001673ffffffffffffffffffffffffffffffffffffffff938416179055604051909189169033907f4a39dc06d4c0dbc64b70af90fd698a233a518aa5d07e595d983b8c0526c8f7fb90610e7d9087908790613a4f565b60405180910390a4604080518481526001602082015273ffffffffffffffffffffffffffffffffffffffff89169160009133917fc3d58168c5ae7397731d063d5bbf3d657854427343f4c083240f7aacaa2d0f62910160405180910390a4505050505050505050565b60606001548210610f53576040517f08c379a000000000000000000000000000000000000000000000000000000000815260206004820152601460248201527f546f6b656e20646f6573206e6f742065786973740000000000000000000000006044820152606401610467565b6005610f5e836123ea565b604051602001610f6f929190613ba0565b6040516020818303038152906040529050919050565b60065473ffffffffffffffffffffffffffffffffffffffff8116906000906103e890610fcc9074010000000000000000000000000000000000000000900460ff1685613bee565b610fd69190613c5a565b90509250929050565b73ffffffffffffffffffffffffffffffffffffffff8516331480611008575061100885336119f7565b61106e576040517f08c379a000000000000000000000000000000000000000000000000000000000815260206004820152601f60248201527f455243313135353a2063616c6c6572206973206e6f7420617070726f766564006044820152606401610467565b61107b8585858585612527565b5050505050565b60606000825167ffffffffffffffff8111156110a0576110a06132e6565b6040519080825280602002602001820160405280156110c9578160200160208202803683370190505b50905060005b8351811015611189576002600960008684815181106110f0576110f061392d565b6020026020010151815260200190815260200160002054815481106111175761111761392d565b9060005260206000200160009054906101000a900473ffffffffffffffffffffffffffffffffffffffff168282815181106111545761115461392d565b73ffffffffffffffffffffffffffffffffffffffff9092166020928302919091019091015261118281613a17565b90506110cf565b5092915050565b60005473ffffffffffffffffffffffffffffffffffffffff163314611211576040517f08c379a000000000000000000000000000000000000000000000000000000000815260206004820181905260248201527f4f776e61626c653a2063616c6c6572206973206e6f7420746865206f776e65726044820152606401610467565b80516006805460209093015160ff1674010000000000000000000000000000000000000000027fffffffffffffffffffffff00000000000000000000000000000000000000000090931673ffffffffffffffffffffffffffffffffffffffff90921691909117919091179055565b606081518351146112ec576040517f08c379a000000000000000000000000000000000000000000000000000000000815260206004820152601e60248201527f455243313135353a206163636f756e74732f696473206d69736d6174636800006044820152606401610467565b6000835167ffffffffffffffff811115611308576113086132e6565b604051908082528060200260200182016040528015611331578160200160208202803683370190505b50905060005b84518110156113a95761137c8582815181106113555761135561392d565b602002602001015185838151811061136f5761136f61392d565b60200260200101516103ec565b82828151811061138e5761138e61392d565b60209081029190910101526113a281613a17565b9050611337565b509392505050565b6000600282815481106113c6576113c661392d565b60009182526020909120015473ffffffffffffffffffffffffffffffffffffffff1692915050565b60005473ffffffffffffffffffffffffffffffffffffffff16331461146f576040517f08c379a000000000000000000000000000000000000000000000000000000000815260206004820181905260248201527f4f776e61626c653a2063616c6c6572206973206e6f7420746865206f776e65726044820152606401610467565b611479600061294b565b565b6000818152600960205260408120546002805490919081106113c6576113c661392d565b6114aa3383836129c0565b5050565b6000826060015183604001516114c49190613bee565b67ffffffffffffffff8111156114dc576114dc6132e6565b604051908082528060200260200182016040528015611505578160200160208202803683370190505b5060018054919250600091908261151b83613a17565b90915550600081815260086020908152604080832088518155918801516001830155870151600282015560608701516003909101559091505b84604001518110156117005760005b85606001518110156116ed576000611594838860000151611584919061398b565b838960200151610ac0919061398b565b9050600760009054906101000a900473ffffffffffffffffffffffffffffffffffffffff1673ffffffffffffffffffffffffffffffffffffffff16639aeea0636040518163ffffffff1660e01b8152600401602060405180830381865afa158015611603573d6000803e3d6000fd5b505050506040513d601f19601f820116820180604052508101906116279190613c6e565b811061168f576040517f08c379a000000000000000000000000000000000000000000000000000000000815260206004820152601260248201527f52656374206f7574206f6620626f756e647300000000000000000000000000006044820152606401610467565b8085848960400151856116a29190613bee565b6116ac91906139ff565b815181106116bc576116bc61392d565b60209081029190910181019190915260009182526009905260409020839055806116e581613a17565b915050611563565b50806116f881613a17565b915050611554565b506007546040517f7d1391b600000000000000000000000000000000000000000000000000000000815273ffffffffffffffffffffffffffffffffffffffff90911690637d1391b6906117599086908690600401613c87565b600060405180830381600087803b15801561177357600080fd5b505af1158015611787573d6000803e3d6000fd5b5050600280546001808201835560009283527f405787fa12a823e0f2b7631cc41b3ba8828b3321ca811111fa75cd3aa3bb5ace90910180547fffffffffffffffffffffffff00000000000000000000000000000000000000001673ffffffffffffffffffffffffffffffffffffffff891690811790915560408051878152602081019390935290945091925033917fc3d58168c5ae7397731d063d5bbf3d657854427343f4c083240f7aacaa2d0f6291015b60405180910390a450505050565b60606000825167ffffffffffffffff811115611865576118656132e6565b60405190808252806020026020018201604052801561188e578160200160208202803683370190505b50905060005b83518110156111895760028482815181106118b1576118b161392d565b6020026020010151815481106118c9576118c961392d565b9060005260206000200160009054906101000a900473ffffffffffffffffffffffffffffffffffffffff168282815181106119065761190661392d565b73ffffffffffffffffffffffffffffffffffffffff9092166020928302919091019091015261193481613a17565b9050611894565b60005473ffffffffffffffffffffffffffffffffffffffff1633146119bc576040517f08c379a000000000000000000000000000000000000000000000000000000000815260206004820181905260248201527f4f776e61626c653a2063616c6c6572206973206e6f7420746865206f776e65726044820152606401610467565b80516114aa9060059060208401906130b5565b606060056040516020016119e39190613cb6565b604051602081830303815290604052905090565b6003546040517fc455279100000000000000000000000000000000000000000000000000000000815273ffffffffffffffffffffffffffffffffffffffff848116600483015260009281169190841690829063c455279190602401602060405180830381865afa158015611a6f573d6000803e3d6000fd5b505050506040513d601f19601f82011682018060405250810190611a939190613cef565b73ffffffffffffffffffffffffffffffffffffffff1603611ab857600191505061053c565b505073ffffffffffffffffffffffffffffffffffffffff918216600090815260046020908152604080832093909416825291909152205460ff1690565b73ffffffffffffffffffffffffffffffffffffffff8116331480611b1e5750611b1e81336119f7565b611b84576040517f08c379a000000000000000000000000000000000000000000000000000000000815260206004820152601f60248201527f455243313135353a2063616c6c6572206973206e6f7420617070726f766564006044820152606401610467565b8073ffffffffffffffffffffffffffffffffffffffff1660028381548110611bae57611bae61392d565b60009182526020909120015473ffffffffffffffffffffffffffffffffffffffff1614611c37576040517f08c379a000000000000000000000000000000000000000000000000000000000815260206004820152601d60248201527f455243313135353a20696e73756666696369656e742062616c616e63650000006044820152606401610467565b600082815260086020908152604080832081516080810183528154815260018201549381019390935260028101549183018290526003015460608301819052919291611c8291613bee565b67ffffffffffffffff811115611c9a57611c9a6132e6565b604051908082528060200260200182016040528015611cc3578160200160208202803683370190505b50905060005b8260400151811015611d6a5760005b8360600151811015611d57576000611cf9838660000151610ab0919061398b565b9050808484876040015185611d0e9190613bee565b611d1891906139ff565b81518110611d2857611d2861392d565b602090810291909101810191909152600091825260099052604081205580611d4f81613a17565b915050611cd8565b5080611d6281613a17565b915050611cc9565b506007546040517fa7701fa500000000000000000000000000000000000000000000000000000000815273ffffffffffffffffffffffffffffffffffffffff9091169063a7701fa590611dc39086908590600401613c87565b600060405180830381600087803b158015611ddd57600080fd5b505af1158015611df1573d6000803e3d6000fd5b50505050600060028581548110611e0a57611e0a61392d565b60009182526020822001805473ffffffffffffffffffffffffffffffffffffffff9384167fffffffffffffffffffffffff0000000000000000000000000000000000000000909116179055604051909185169033907fc3d58168c5ae7397731d063d5bbf3d657854427343f4c083240f7aacaa2d0f6290611839908990600190918252602082015260400190565b6001548310611f03576040517f08c379a000000000000000000000000000000000000000000000000000000000815260206004820152601460248201527f546f6b656e20646f6573206e6f742065786973740000000000000000000000006044820152606401610467565b81600114611f6d576040517f08c379a000000000000000000000000000000000000000000000000000000000815260206004820152601a60248201527f43616e6e6f74207472616e7366657220616d6f756e74203e20310000000000006044820152606401610467565b73ffffffffffffffffffffffffffffffffffffffff8516331480611f965750611f9685336119f7565b611ffc576040517f08c379a000000000000000000000000000000000000000000000000000000000815260206004820152601f60248201527f455243313135353a2063616c6c6572206973206e6f7420617070726f766564006044820152606401610467565b61107b8585858585612aed565b60005473ffffffffffffffffffffffffffffffffffffffff16331461208a576040517f08c379a000000000000000000000000000000000000000000000000000000000815260206004820181905260248201527f4f776e61626c653a2063616c6c6572206973206e6f7420746865206f776e65726044820152606401610467565b73ffffffffffffffffffffffffffffffffffffffff811661212d576040517f08c379a000000000000000000000000000000000000000000000000000000000815260206004820152602660248201527f4f776e61626c653a206e6577206f776e657220697320746865207a65726f206160448201527f64647265737300000000000000000000000000000000000000000000000000006064820152608401610467565b6121368161294b565b50565b60005473ffffffffffffffffffffffffffffffffffffffff1633146121ba576040517f08c379a000000000000000000000000000000000000000000000000000000000815260206004820181905260248201527f4f776e61626c653a2063616c6c6572206973206e6f7420746865206f776e65726044820152606401610467565b60405173ffffffffffffffffffffffffffffffffffffffff83169082156108fc029083906000818181858888f193505050501580156121fd573d6000803e3d6000fd5b505050565b600082158015612210575081155b1561221d5750600061053c565b82600114801561222b575081155b156122385750600161053c565b8260011480156122675750817fffffffffffffffffffffffffffffffffffffffffffffffffffffffffffffffff145b156122745750600261053c565b821580156122a15750817fffffffffffffffffffffffffffffffffffffffffffffffffffffffffffffffff145b156122ae5750600361053c565b60006122b984612ccb565b905060006122c684612ccb565b9050600080828413806122e3575082841480156122e35750600087125b1561234a57600087131561233d576122fc600188613d0c565b91506001868561230d856004613d80565b61231890600161398b565b612322919061398b565b61232c9190613d0c565b6123369190613d0c565b90506123be565b8391506123368787613d0c565b6000861315612377578591508683612363846002613d80565b61236d919061398b565b612336919061398b565b612382600184613d0c565b91508587612391846006613d80565b61239c90600161398b565b6123a69190613d0c565b6123b09190613d0c565b6123bb90600161398b565b90505b8060026123cb8482613d80565b6123d59190613fec565b6123df919061398b565b979650505050505050565b60608160000361242d57505060408051808201909152600181527f3000000000000000000000000000000000000000000000000000000000000000602082015290565b8160005b8115612457578061244181613a17565b91506124509050600a83613c5a565b9150612431565b60008167ffffffffffffffff811115612472576124726132e6565b6040519080825280601f01601f19166020018201604052801561249c576020820181803683370190505b5090505b841561251f576124b1600183613ffb565b91506124be600a86614012565b6124c99060306139ff565b60f81b8183815181106124de576124de61392d565b60200101907effffffffffffffffffffffffffffffffffffffffffffffffffffffffffffff1916908160001a905350612518600a86613c5a565b94506124a0565b949350505050565b8151835114612592576040517f08c379a000000000000000000000000000000000000000000000000000000000815260206004820152601d60248201527f455243313135353a206964732f616d6f756e7473206d69736d617463680000006044820152606401610467565b73ffffffffffffffffffffffffffffffffffffffff841661260f576040517f08c379a000000000000000000000000000000000000000000000000000000000815260206004820152601f60248201527f455243313135353a207472616e7366657220746f2061646472657373283029006044820152606401610467565b6000835167ffffffffffffffff81111561262b5761262b6132e6565b604051908082528060200260200182016040528015612654578160200160208202803683370190505b50905060005b84518110156128b65760008582815181106126775761267761392d565b6020026020010151905060008583815181106126955761269561392d565b60200260200101519050600154821061270a576040517f08c379a000000000000000000000000000000000000000000000000000000000815260206004820152601460248201527f546f6b656e20646f6573206e6f742065786973740000000000000000000000006044820152606401610467565b80600114612774576040517f08c379a000000000000000000000000000000000000000000000000000000000815260206004820152601a60248201527f43616e6e6f74207472616e7366657220616d6f756e74203e20310000000000006044820152606401610467565b8873ffffffffffffffffffffffffffffffffffffffff166002838154811061279e5761279e61392d565b60009182526020909120015473ffffffffffffffffffffffffffffffffffffffff1614612827576040517f08c379a000000000000000000000000000000000000000000000000000000000815260206004820152601d60248201527f455243313135353a20696e73756666696369656e742062616c616e63650000006044820152606401610467565b876002838154811061283b5761283b61392d565b9060005260206000200160006101000a81548173ffffffffffffffffffffffffffffffffffffffff021916908373ffffffffffffffffffffffffffffffffffffffff16021790555060008484815181106128975761289761392d565b6020026020010181815250505050806128af90613a17565b905061265a565b508473ffffffffffffffffffffffffffffffffffffffff168673ffffffffffffffffffffffffffffffffffffffff163373ffffffffffffffffffffffffffffffffffffffff167f4a39dc06d4c0dbc64b70af90fd698a233a518aa5d07e595d983b8c0526c8f7fb878560405161292d929190613a4f565b60405180910390a4612943338787878787612ce7565b505050505050565b6000805473ffffffffffffffffffffffffffffffffffffffff8381167fffffffffffffffffffffffff0000000000000000000000000000000000000000831681178455604051919092169283917f8be0079c531659141344cd1fd0a4f28419497f9722a3daafe3b4186f6b6457e09190a35050565b8173ffffffffffffffffffffffffffffffffffffffff168373ffffffffffffffffffffffffffffffffffffffff1603612a55576040517f08c379a000000000000000000000000000000000000000000000000000000000815260206004820152601c60248201527f455243313135353a2063616e6e6f7420617070726f76652073656c66000000006044820152606401610467565b73ffffffffffffffffffffffffffffffffffffffff83811660008181526004602090815260408083209487168084529482529182902080547fffffffffffffffffffffffffffffffffffffffffffffffffffffffffffffff001686151590811790915591519182527f17307eab39ab6107e8899845ad3d59bd9653f200f220920489ca2b5937696c31910160405180910390a3505050565b73ffffffffffffffffffffffffffffffffffffffff8416612b6a576040517f08c379a000000000000000000000000000000000000000000000000000000000815260206004820152601f60248201527f455243313135353a207472616e7366657220746f2061646472657373283029006044820152606401610467565b8473ffffffffffffffffffffffffffffffffffffffff1660028481548110612b9457612b9461392d565b60009182526020909120015473ffffffffffffffffffffffffffffffffffffffff1614612c1d576040517f08c379a000000000000000000000000000000000000000000000000000000000815260206004820152601d60248201527f455243313135353a20696e73756666696369656e742062616c616e63650000006044820152606401610467565b8360028481548110612c3157612c3161392d565b60009182526020918290200180547fffffffffffffffffffffffff00000000000000000000000000000000000000001673ffffffffffffffffffffffffffffffffffffffff938416179055604080518681529182018590528683169288169133917fc3d58168c5ae7397731d063d5bbf3d657854427343f4c083240f7aacaa2d0f62910160405180910390a461107b338686868686612f2e565b600080821215612ce357612cde82614026565b61053c565b5090565b73ffffffffffffffffffffffffffffffffffffffff84163b15612943576040517fbc197c8100000000000000000000000000000000000000000000000000000000815273ffffffffffffffffffffffffffffffffffffffff85169063bc197c8190612d5e908990899088908890889060040161405e565b6020604051808303816000875af1925050508015612db7575060408051601f3d9081017fffffffffffffffffffffffffffffffffffffffffffffffffffffffffffffffe0168201909252612db4918101906140c9565b60015b612e7a57612dc36140e6565b806308c379a003612e165750612dd7614102565b80612de25750612e18565b806040517f08c379a000000000000000000000000000000000000000000000000000000000815260040161046791906132b1565b505b6040517f08c379a000000000000000000000000000000000000000000000000000000000815260206004820152601f60248201527f455243313135353a20746f206e6f7420455243313135355265636569766572006044820152606401610467565b7fffffffff0000000000000000000000000000000000000000000000000000000081167fbc197c810000000000000000000000000000000000000000000000000000000014612f25576040517f08c379a000000000000000000000000000000000000000000000000000000000815260206004820152601f60248201527f455243313135353a204552433131353552656365697665722072656a656374006044820152606401610467565b50505050505050565b73ffffffffffffffffffffffffffffffffffffffff84163b15612943576040517ff23a6e6100000000000000000000000000000000000000000000000000000000815273ffffffffffffffffffffffffffffffffffffffff85169063f23a6e6190612fa590899089908890889088906004016141aa565b6020604051808303816000875af1925050508015612ffe575060408051601f3d9081017fffffffffffffffffffffffffffffffffffffffffffffffffffffffffffffffe0168201909252612ffb918101906140c9565b60015b61300a57612dc36140e6565b7fffffffff0000000000000000000000000000000000000000000000000000000081167ff23a6e610000000000000000000000000000000000000000000000000000000014612f25576040517f08c379a000000000000000000000000000000000000000000000000000000000815260206004820152601f60248201527f455243313135353a204552433131353552656365697665722072656a656374006044820152606401610467565b8280546130c190613a7d565b90600052602060002090601f0160209004810192826130e35760008555613129565b82601f106130fc57805160ff1916838001178555613129565b82800160010185558215613129579182015b8281111561312957825182559160200191906001019061310e565b50612ce39291505b80821115612ce35760008155600101613131565b73ffffffffffffffffffffffffffffffffffffffff8116811461213657600080fd5b6000806040838503121561317a57600080fd5b823561318581613145565b946020939093013593505050565b7fffffffff000000000000000000000000000000000000000000000000000000008116811461213657600080fd5b6000602082840312156131d357600080fd5b81356131de81613193565b9392505050565b6000806000606084860312156131fa57600080fd5b8335925060208401359150604084013561321381613145565b809150509250925092565b60006020828403121561323057600080fd5b5035919050565b60005b8381101561325257818101518382015260200161323a565b83811115613261576000848401525b50505050565b6000815180845261327f816020860160208601613237565b601f017fffffffffffffffffffffffffffffffffffffffffffffffffffffffffffffffe0169290920160200192915050565b6020815260006131de6020830184613267565b600080604083850312156132d757600080fd5b50508035926020909101359150565b7f4e487b7100000000000000000000000000000000000000000000000000000000600052604160045260246000fd5b7fffffffffffffffffffffffffffffffffffffffffffffffffffffffffffffffe0601f830116810181811067ffffffffffffffff82111715613359576133596132e6565b6040525050565b600067ffffffffffffffff82111561337a5761337a6132e6565b5060051b60200190565b600082601f83011261339557600080fd5b813560206133a282613360565b6040516133af8282613315565b83815260059390931b85018201928281019150868411156133cf57600080fd5b8286015b848110156133ea57803583529183019183016133d3565b509695505050505050565b600067ffffffffffffffff83111561340f5761340f6132e6565b60405161344460207fffffffffffffffffffffffffffffffffffffffffffffffffffffffffffffffe0601f8701160182613315565b80915083815284848401111561345957600080fd5b83836020830137600060208583010152509392505050565b600082601f83011261348257600080fd5b6131de838335602085016133f5565b600080600080600060a086880312156134a957600080fd5b85356134b481613145565b945060208601356134c481613145565b9350604086013567ffffffffffffffff808211156134e157600080fd5b6134ed89838a01613384565b9450606088013591508082111561350357600080fd5b61350f89838a01613384565b9350608088013591508082111561352557600080fd5b5061353288828901613471565b9150509295509295909350565b60006020828403121561355157600080fd5b813567ffffffffffffffff81111561356857600080fd5b61251f84828501613384565b6020808252825182820181905260009190848201906040850190845b818110156135c257835173ffffffffffffffffffffffffffffffffffffffff1683529284019291840191600101613590565b50909695505050505050565b6000604082840312156135e057600080fd5b6040516040810181811067ffffffffffffffff82111715613603576136036132e6565b604052823561361181613145565b8152602083013560ff8116811461362757600080fd5b60208201529392505050565b6000806040838503121561364657600080fd5b823567ffffffffffffffff8082111561365e57600080fd5b818501915085601f83011261367257600080fd5b8135602061367f82613360565b60405161368c8282613315565b83815260059390931b85018201928281019150898411156136ac57600080fd5b948201945b838610156136d35785356136c481613145565b825294820194908201906136b1565b965050860135925050808211156136e957600080fd5b506136f685828601613384565b9150509250929050565b600081518084526020808501945080840160005b8381101561373057815187529582019590820190600101613714565b509495945050505050565b6020815260006131de6020830184613700565b6000806040838503121561376157600080fd5b823561376c81613145565b91506020830135801515811461378157600080fd5b809150509250929050565b60008082840360a08112156137a057600080fd5b60808112156137ae57600080fd5b506040516080810181811067ffffffffffffffff821117156137d2576137d26132e6565b80604052508335815260208401356020820152604084013560408201526060840135606082015280925050608083013561378181613145565b60006020828403121561381d57600080fd5b813567ffffffffffffffff81111561383457600080fd5b8201601f8101841361384557600080fd5b61251f848235602084016133f5565b6000806040838503121561386757600080fd5b823561387281613145565b9150602083013561378181613145565b6000806040838503121561389557600080fd5b82359150602083013561378181613145565b600080600080600060a086880312156138bf57600080fd5b85356138ca81613145565b945060208601356138da81613145565b93506040860135925060608601359150608086013567ffffffffffffffff81111561390457600080fd5b61353288828901613471565b60006020828403121561392257600080fd5b81356131de81613145565b7f4e487b7100000000000000000000000000000000000000000000000000000000600052603260045260246000fd5b7f4e487b7100000000000000000000000000000000000000000000000000000000600052601160045260246000fd5b6000808212827f7fffffffffffffffffffffffffffffffffffffffffffffffffffffffffffffff038413811516156139c5576139c561395c565b827f80000000000000000000000000000000000000000000000000000000000000000384128116156139f9576139f961395c565b50500190565b60008219821115613a1257613a1261395c565b500190565b60007fffffffffffffffffffffffffffffffffffffffffffffffffffffffffffffffff8203613a4857613a4861395c565b5060010190565b604081526000613a626040830185613700565b8281036020840152613a748185613700565b95945050505050565b600181811c90821680613a9157607f821691505b602082108103613aca577f4e487b7100000000000000000000000000000000000000000000000000000000600052602260045260246000fd5b50919050565b8054600090600181811c9080831680613aea57607f831692505b60208084108203613b24577f4e487b7100000000000000000000000000000000000000000000000000000000600052602260045260246000fd5b818015613b385760018114613b6757613b94565b7fffffffffffffffffffffffffffffffffffffffffffffffffffffffffffffff00861689528489019650613b94565b60008881526020902060005b86811015613b8c5781548b820152908501908301613b73565b505084890196505b50505050505092915050565b6000613bac8285613ad0565b7f746f6b656e2f000000000000000000000000000000000000000000000000000081528351613be2816006840160208801613237565b01600601949350505050565b6000817fffffffffffffffffffffffffffffffffffffffffffffffffffffffffffffffff0483118215151615613c2657613c2661395c565b500290565b7f4e487b7100000000000000000000000000000000000000000000000000000000600052601260045260246000fd5b600082613c6957613c69613c2b565b500490565b600060208284031215613c8057600080fd5b5051919050565b73ffffffffffffffffffffffffffffffffffffffff8316815260406020820152600061251f6040830184613700565b6000613cc28284613ad0565b7f636f6e747261637400000000000000000000000000000000000000000000000081526008019392505050565b600060208284031215613d0157600080fd5b81516131de81613145565b6000808312837f800000000000000000000000000000000000000000000000000000000000000001831281151615613d4657613d4661395c565b837f7fffffffffffffffffffffffffffffffffffffffffffffffffffffffffffffff018313811615613d7a57613d7a61395c565b50500390565b60007f7fffffffffffffffffffffffffffffffffffffffffffffffffffffffffffffff600084136000841385830485118282161615613dc157613dc161395c565b7f80000000000000000000000000000000000000000000000000000000000000006000871286820588128184161615613dfc57613dfc61395c565b60008712925087820587128484161615613e1857613e1861395c565b87850587128184161615613e2e57613e2e61395c565b505050929093029392505050565b80825b6001808611613e4e5750613e99565b817f7fffffffffffffffffffffffffffffffffffffffffffffffffffffffffffffff04821115613e8057613e8061395c565b80861615613e8d57918102915b9490941c938002613e3f565b935093915050565b6000828015613eb75760018114613ec157613eca565b600191505061053c565b8291505061053c565b5081613ed85750600061053c565b50600160008213808214613ef1578015613f2857613f5a565b827f7fffffffffffffffffffffffffffffffffffffffffffffffffffffffffffffff04831115613f2357613f2361395c565b613f5a565b827f7fffffffffffffffffffffffffffffffffffffffffffffffffffffffffffffff05831215613f5a57613f5a61395c565b5080831615613f665750805b613f768360011c83840283613e3c565b807f7fffffffffffffffffffffffffffffffffffffffffffffffffffffffffffffff048211600083131615613fad57613fad61395c565b807f8000000000000000000000000000000000000000000000000000000000000000058212600083121615613fe457613fe461395c565b029392505050565b60006131de60ff841683613ea1565b60008282101561400d5761400d61395c565b500390565b60008261402157614021613c2b565b500690565b60007f800000000000000000000000000000000000000000000000000000000000000082036140575761405761395c565b5060000390565b600073ffffffffffffffffffffffffffffffffffffffff808816835280871660208401525060a0604083015261409760a0830186613700565b82810360608401526140a98186613700565b905082810360808401526140bd8185613267565b98975050505050505050565b6000602082840312156140db57600080fd5b81516131de81613193565b600060033d11156140ff5760046000803e5060005160e01c5b90565b600060443d10156141105790565b6040517ffffffffffffffffffffffffffffffffffffffffffffffffffffffffffffffffc803d016004833e81513d67ffffffffffffffff816024840111818411171561415e57505050505090565b82850191508151818111156141765750505050505090565b843d87010160208285010111156141905750505050505090565b61419f60208286010187613315565b509095945050505050565b600073ffffffffffffffffffffffffffffffffffffffff808816835280871660208401525084604083015283606083015260a060808301526123df60a083018461326756fea2646970667358221220b8ea1eb4e9e9fa105527e0f945e7b3b5338175c0da88b7f363403d8bfe33e8e364736f6c634300080d0033",
  "devdoc": {
    "kind": "dev",
    "methods": {
      "balanceOf(address,uint256)": {
        "details": "See {IERC1155-balanceOf}. Requirements: - `account` cannot be the zero address."
      },
      "balanceOfBatch(address[],uint256[])": {
        "details": "See {IERC1155-balanceOfBatch}. Requirements: - `accounts` and `ids` must have the same length."
      },
      "combinePatches(uint256,uint256,address)": {
        "details": "Combine two patches. Must have the same width or heigh and be adjacent. The resulting shape must be a rectanle as well."
      },
      "contractURI()": {
        "details": "OpenSea spec metadata for the contract - always \"<baseUrl>/contract\"."
      },
      "getOwningAddress(uint256)": {
        "details": "Gets the owner of a given token."
      },
      "getOwningAddressBatch(uint256[])": {
        "details": "Gets the owner(s) of a given batch of tokens."
      },
      "getTileOwner(uint256)": {
        "details": "Gets the owner of a given tile (if a patch exists)."
      },
      "getTileOwnerBatch(uint256[])": {
        "details": "Gets the owner(s) of a given batch of tiles (if a patch exists)."
      },
      "isApprovedForAll(address,address)": {
        "details": "See {IERC1155-isApprovedForAll}. This also whitelists the ProxyRegistry used by OpenSea."
      },
      "owner()": {
        "details": "Returns the address of the current owner."
      },
      "renounceOwnership()": {
        "details": "Leaves the contract without owner. It will not be possible to call `onlyOwner` functions anymore. Can only be called by the current owner. NOTE: Renouncing ownership will leave the contract without an owner, thereby removing any functionality that is only available to the owner."
      },
      "royaltyInfo(uint256,uint256)": {
        "details": "See {IERC2981-royaltyInfo}.",
        "returns": {
          "receiver": "will always be the address of the deployer of the contract.",
          "royaltyAmount": "will always be 7% of value."
        }
      },
      "safeBatchTransferFrom(address,address,uint256[],uint256[],bytes)": {
        "details": "See {IERC1155-safeBatchTransferFrom}."
      },
      "safeTransferFrom(address,address,uint256,uint256,bytes)": {
        "details": "See {IERC1155-safeTransferFrom}."
      },
      "setApprovalForAll(address,bool)": {
        "details": "See {IERC1155-setApprovalForAll}."
      },
      "supportsInterface(bytes4)": {
        "details": "See {IERC165-supportsInterface}."
      },
      "transferOwnership(address)": {
        "details": "Transfers ownership of the contract to a new account (`newOwner`). Can only be called by the current owner."
      },
      "uri(uint256)": {
        "details": "See {IERC1155MetadataURI-uri}. This implementation returns a unique URI for each token, using a \"token/<id>\" format, for a wider compatibility compared to \"{id}\" replacement."
      }
    },
    "version": 1
  },
  "userdoc": {
    "kind": "user",
    "methods": {},
    "version": 1
  },
  "storageLayout": {
    "storage": [
      {
        "astId": 7,
        "contract": "contracts/Patch.sol:Patch",
        "label": "_owner",
        "offset": 0,
        "slot": "0",
        "type": "t_address"
      },
      {
        "astId": 2561,
        "contract": "contracts/Patch.sol:Patch",
        "label": "mintedTokens",
        "offset": 0,
        "slot": "1",
        "type": "t_uint256"
      },
      {
        "astId": 2564,
        "contract": "contracts/Patch.sol:Patch",
        "label": "_tokenOwners",
        "offset": 0,
        "slot": "2",
        "type": "t_array(t_address)dyn_storage"
      },
      {
        "astId": 2566,
        "contract": "contracts/Patch.sol:Patch",
        "label": "_proxyRegistryAddress",
        "offset": 0,
        "slot": "3",
        "type": "t_address"
      },
      {
        "astId": 2572,
        "contract": "contracts/Patch.sol:Patch",
        "label": "_operatorApprovals",
        "offset": 0,
        "slot": "4",
        "type": "t_mapping(t_address,t_mapping(t_address,t_bool))"
      },
      {
        "astId": 2574,
        "contract": "contracts/Patch.sol:Patch",
        "label": "_baseUrl",
        "offset": 0,
        "slot": "5",
        "type": "t_string_storage"
      },
      {
        "astId": 2577,
        "contract": "contracts/Patch.sol:Patch",
        "label": "_royaltyConfig",
        "offset": 0,
        "slot": "6",
        "type": "t_struct(RoyaltyConfig)2558_storage"
      },
      {
        "astId": 947,
        "contract": "contracts/Patch.sol:Patch",
        "label": "_tileContract",
        "offset": 0,
        "slot": "7",
        "type": "t_address"
      },
      {
        "astId": 952,
        "contract": "contracts/Patch.sol:Patch",
        "label": "_bounds",
        "offset": 0,
        "slot": "8",
        "type": "t_mapping(t_uint256,t_struct(Rectangle)941_storage)"
      },
      {
        "astId": 956,
        "contract": "contracts/Patch.sol:Patch",
        "label": "_tileToPatch",
        "offset": 0,
        "slot": "9",
        "type": "t_mapping(t_uint256,t_uint256)"
      }
    ],
    "types": {
      "t_address": {
        "encoding": "inplace",
        "label": "address",
        "numberOfBytes": "20"
      },
      "t_array(t_address)dyn_storage": {
        "base": "t_address",
        "encoding": "dynamic_array",
        "label": "address[]",
        "numberOfBytes": "32"
      },
      "t_bool": {
        "encoding": "inplace",
        "label": "bool",
        "numberOfBytes": "1"
      },
      "t_int256": {
        "encoding": "inplace",
        "label": "int256",
        "numberOfBytes": "32"
      },
      "t_mapping(t_address,t_bool)": {
        "encoding": "mapping",
        "key": "t_address",
        "label": "mapping(address => bool)",
        "numberOfBytes": "32",
        "value": "t_bool"
      },
      "t_mapping(t_address,t_mapping(t_address,t_bool))": {
        "encoding": "mapping",
        "key": "t_address",
        "label": "mapping(address => mapping(address => bool))",
        "numberOfBytes": "32",
        "value": "t_mapping(t_address,t_bool)"
      },
      "t_mapping(t_uint256,t_struct(Rectangle)941_storage)": {
        "encoding": "mapping",
        "key": "t_uint256",
        "label": "mapping(uint256 => struct Patch.Rectangle)",
        "numberOfBytes": "32",
        "value": "t_struct(Rectangle)941_storage"
      },
      "t_mapping(t_uint256,t_uint256)": {
        "encoding": "mapping",
        "key": "t_uint256",
        "label": "mapping(uint256 => uint256)",
        "numberOfBytes": "32",
        "value": "t_uint256"
      },
      "t_string_storage": {
        "encoding": "bytes",
        "label": "string",
        "numberOfBytes": "32"
      },
      "t_struct(Rectangle)941_storage": {
        "encoding": "inplace",
        "label": "struct Patch.Rectangle",
        "members": [
          {
            "astId": 934,
            "contract": "contracts/Patch.sol:Patch",
            "label": "x",
            "offset": 0,
            "slot": "0",
            "type": "t_int256"
          },
          {
            "astId": 936,
            "contract": "contracts/Patch.sol:Patch",
            "label": "y",
            "offset": 0,
            "slot": "1",
            "type": "t_int256"
          },
          {
            "astId": 938,
            "contract": "contracts/Patch.sol:Patch",
            "label": "width",
            "offset": 0,
            "slot": "2",
            "type": "t_uint256"
          },
          {
            "astId": 940,
            "contract": "contracts/Patch.sol:Patch",
            "label": "height",
            "offset": 0,
            "slot": "3",
            "type": "t_uint256"
          }
        ],
        "numberOfBytes": "128"
      },
      "t_struct(RoyaltyConfig)2558_storage": {
        "encoding": "inplace",
        "label": "struct ERC1155NFT.RoyaltyConfig",
        "members": [
          {
            "astId": 2555,
            "contract": "contracts/Patch.sol:Patch",
            "label": "target",
            "offset": 0,
            "slot": "0",
            "type": "t_address"
          },
          {
            "astId": 2557,
            "contract": "contracts/Patch.sol:Patch",
            "label": "points",
            "offset": 20,
            "slot": "0",
            "type": "t_uint8"
          }
        ],
        "numberOfBytes": "32"
      },
      "t_uint256": {
        "encoding": "inplace",
        "label": "uint256",
        "numberOfBytes": "32"
      },
      "t_uint8": {
        "encoding": "inplace",
        "label": "uint8",
        "numberOfBytes": "1"
      }
    }
  }
}