{
  "address": "0xefAB0Beb0A557E452b398035eA964948c750b2Fd",
  "abi": [
    {
      "inputs": [
        {
          "internalType": "address",
          "name": "",
          "type": "address"
        }
      ],
      "name": "proxies",
      "outputs": [
        {
          "internalType": "contract OwnableDelegateProxy",
          "name": "",
          "type": "address"
        }
      ],
      "stateMutability": "view",
      "type": "function"
    },
    {
      "inputs": [
        {
          "internalType": "address",
          "name": "proxy",
          "type": "address"
        }
      ],
      "name": "setProxy",
      "outputs": [],
      "stateMutability": "nonpayable",
      "type": "function"
    }
  ],
  "transactionHash": "0xaf544f8fd3ad6edb8cf9be4bd64fb84c116ad0d37530526c37e297a9d1f846fd",
  "args": [],
  "numDeployments": 1,
  "solcInputHash": "29e6c251a46367ebfca0380b3613092f",
  "bytecode": "0x608060405234801561001057600080fd5b50610171806100206000396000f3fe608060405234801561001057600080fd5b50600436106100365760003560e01c806397107d6d1461003b578063c45527911461009f575b600080fd5b61009d6100493660046100fe565b33600090815260208190526040902080547fffffffffffffffffffffffff00000000000000000000000000000000000000001673ffffffffffffffffffffffffffffffffffffffff92909216919091179055565b005b6100d56100ad3660046100fe565b60006020819052908152604090205473ffffffffffffffffffffffffffffffffffffffff1681565b60405173ffffffffffffffffffffffffffffffffffffffff909116815260200160405180910390f35b60006020828403121561011057600080fd5b813573ffffffffffffffffffffffffffffffffffffffff8116811461013457600080fd5b939250505056fea264697066735822122005fd5abdf9d894f27cddfa03de42dd4143e5026e854c1655672d3b9abdb91aa764736f6c634300080d0033",
  "devdoc": {
    "kind": "dev",
    "methods": {},
    "version": 1
  },
  "userdoc": {
    "kind": "user",
    "methods": {},
    "version": 1
  },
  "storageLayout": {
    "storage": [
      {
        "astId": 3439,
        "contract": "contracts/test/ProxyRegistryMock.sol:ProxyRegistryMock",
        "label": "proxies",
        "offset": 0,
        "slot": "0",
        "type": "t_mapping(t_address,t_contract(OwnableDelegateProxy)3434)"
      }
    ],
    "types": {
      "t_address": {
        "encoding": "inplace",
        "label": "address",
        "numberOfBytes": "20"
      },
      "t_contract(OwnableDelegateProxy)3434": {
        "encoding": "inplace",
        "label": "contract OwnableDelegateProxy",
        "numberOfBytes": "20"
      },
      "t_mapping(t_address,t_contract(OwnableDelegateProxy)3434)": {
        "encoding": "mapping",
        "key": "t_address",
        "label": "mapping(address => contract OwnableDelegateProxy)",
        "numberOfBytes": "32",
        "value": "t_contract(OwnableDelegateProxy)3434"
      }
    }
  }
}