{
  "address": "0xefC7a57a4ad949240dd9B777344EEc7CBDf234bD",
  "abi": [
    {
      "inputs": [
        {
          "internalType": "address",
          "name": "tileContract",
          "type": "address"
        },
        {
          "internalType": "string",
          "name": "apiUrl",
          "type": "string"
        },
        {
          "internalType": "address",
          "name": "proxyRegistryAddress",
          "type": "address"
        }
      ],
      "stateMutability": "nonpayable",
      "type": "constructor"
    },
    {
      "anonymous": false,
      "inputs": [
        {
          "indexed": true,
          "internalType": "address",
          "name": "account",
          "type": "address"
        },
        {
          "indexed": true,
          "internalType": "address",
          "name": "operator",
          "type": "address"
        },
        {
          "indexed": false,
          "internalType": "bool",
          "name": "approved",
          "type": "bool"
        }
      ],
      "name": "ApprovalForAll",
      "type": "event"
    },
    {
      "anonymous": false,
      "inputs": [
        {
          "indexed": true,
          "internalType": "address",
          "name": "previousOwner",
          "type": "address"
        },
        {
          "indexed": true,
          "internalType": "address",
          "name": "newOwner",
          "type": "address"
        }
      ],
      "name": "OwnershipTransferred",
      "type": "event"
    },
    {
      "anonymous": false,
      "inputs": [
        {
          "indexed": true,
          "internalType": "address",
          "name": "operator",
          "type": "address"
        },
        {
          "indexed": true,
          "internalType": "address",
          "name": "from",
          "type": "address"
        },
        {
          "indexed": true,
          "internalType": "address",
          "name": "to",
          "type": "address"
        },
        {
          "indexed": false,
          "internalType": "uint256[]",
          "name": "ids",
          "type": "uint256[]"
        },
        {
          "indexed": false,
          "internalType": "uint256[]",
          "name": "values",
          "type": "uint256[]"
        }
      ],
      "name": "TransferBatch",
      "type": "event"
    },
    {
      "anonymous": false,
      "inputs": [
        {
          "indexed": true,
          "internalType": "address",
          "name": "operator",
          "type": "address"
        },
        {
          "indexed": true,
          "internalType": "address",
          "name": "from",
          "type": "address"
        },
        {
          "indexed": true,
          "internalType": "address",
          "name": "to",
          "type": "address"
        },
        {
          "indexed": false,
          "internalType": "uint256",
          "name": "id",
          "type": "uint256"
        },
        {
          "indexed": false,
          "internalType": "uint256",
          "name": "value",
          "type": "uint256"
        }
      ],
      "name": "TransferSingle",
      "type": "event"
    },
    {
      "anonymous": false,
      "inputs": [
        {
          "indexed": false,
          "internalType": "string",
          "name": "value",
          "type": "string"
        },
        {
          "indexed": true,
          "internalType": "uint256",
          "name": "id",
          "type": "uint256"
        }
      ],
      "name": "URI",
      "type": "event"
    },
    {
      "inputs": [
        {
          "internalType": "address",
          "name": "account",
          "type": "address"
        },
        {
          "internalType": "uint256",
          "name": "id",
          "type": "uint256"
        }
      ],
      "name": "balanceOf",
      "outputs": [
        {
          "internalType": "uint256",
          "name": "",
          "type": "uint256"
        }
      ],
      "stateMutability": "view",
      "type": "function"
    },
    {
      "inputs": [
        {
          "internalType": "address[]",
          "name": "accounts",
          "type": "address[]"
        },
        {
          "internalType": "uint256[]",
          "name": "ids",
          "type": "uint256[]"
        }
      ],
      "name": "balanceOfBatch",
      "outputs": [
        {
          "internalType": "uint256[]",
          "name": "",
          "type": "uint256[]"
        }
      ],
      "stateMutability": "view",
      "type": "function"
    },
    {
      "inputs": [
        {
          "internalType": "uint256",
          "name": "patchId",
          "type": "uint256"
        },
        {
          "internalType": "address",
          "name": "from",
          "type": "address"
        }
      ],
      "name": "breakPatchFrom",
      "outputs": [],
      "stateMutability": "nonpayable",
      "type": "function"
    },
    {
      "inputs": [
        {
          "internalType": "uint256",
          "name": "firstPatchId",
          "type": "uint256"
        },
        {
          "internalType": "uint256",
          "name": "secondPatchId",
          "type": "uint256"
        },
        {
          "internalType": "address",
          "name": "to",
          "type": "address"
        }
      ],
      "name": "combinePatches",
      "outputs": [],
      "stateMutability": "nonpayable",
      "type": "function"
    },
    {
      "inputs": [],
      "name": "contractURI",
      "outputs": [
        {
          "internalType": "string",
          "name": "",
          "type": "string"
        }
      ],
      "stateMutability": "view",
      "type": "function"
    },
    {
      "inputs": [
        {
          "internalType": "uint256",
          "name": "id",
          "type": "uint256"
        }
      ],
      "name": "getBounds",
      "outputs": [
        {
          "components": [
            {
              "internalType": "int256",
              "name": "x",
              "type": "int256"
            },
            {
              "internalType": "int256",
              "name": "y",
              "type": "int256"
            },
            {
              "internalType": "uint256",
              "name": "width",
              "type": "uint256"
            },
            {
              "internalType": "uint256",
              "name": "height",
              "type": "uint256"
            }
          ],
          "internalType": "struct Patch.Rectangle",
          "name": "",
          "type": "tuple"
        }
      ],
      "stateMutability": "view",
      "type": "function"
    },
    {
      "inputs": [
        {
          "internalType": "uint256",
          "name": "id",
          "type": "uint256"
        }
      ],
      "name": "getOwningAddress",
      "outputs": [
        {
          "internalType": "address",
          "name": "",
          "type": "address"
        }
      ],
      "stateMutability": "view",
      "type": "function"
    },
    {
      "inputs": [
        {
          "internalType": "uint256[]",
          "name": "ids",
          "type": "uint256[]"
        }
      ],
      "name": "getOwningAddressBatch",
      "outputs": [
        {
          "internalType": "address[]",
          "name": "",
          "type": "address[]"
        }
      ],
      "stateMutability": "view",
      "type": "function"
    },
    {
      "inputs": [
        {
          "internalType": "uint256",
          "name": "id",
          "type": "uint256"
        }
      ],
      "name": "getTileOwner",
      "outputs": [
        {
          "internalType": "address",
          "name": "",
          "type": "address"
        }
      ],
      "stateMutability": "view",
      "type": "function"
    },
    {
      "inputs": [
        {
          "internalType": "uint256[]",
          "name": "ids",
          "type": "uint256[]"
        }
      ],
      "name": "getTileOwnerBatch",
      "outputs": [
        {
          "internalType": "address[]",
          "name": "",
          "type": "address[]"
        }
      ],
      "stateMutability": "view",
      "type": "function"
    },
    {
      "inputs": [
        {
          "internalType": "uint256",
          "name": "id",
          "type": "uint256"
        }
      ],
      "name": "getTilePatch",
      "outputs": [
        {
          "internalType": "uint256",
          "name": "",
          "type": "uint256"
        }
      ],
      "stateMutability": "view",
      "type": "function"
    },
    {
      "inputs": [
        {
          "internalType": "address",
          "name": "account",
          "type": "address"
        },
        {
          "internalType": "address",
          "name": "operator",
          "type": "address"
        }
      ],
      "name": "isApprovedForAll",
      "outputs": [
        {
          "internalType": "bool",
          "name": "",
          "type": "bool"
        }
      ],
      "stateMutability": "view",
      "type": "function"
    },
    {
      "inputs": [
        {
          "components": [
            {
              "internalType": "int256",
              "name": "x",
              "type": "int256"
            },
            {
              "internalType": "int256",
              "name": "y",
              "type": "int256"
            },
            {
              "internalType": "uint256",
              "name": "width",
              "type": "uint256"
            },
            {
              "internalType": "uint256",
              "name": "height",
              "type": "uint256"
            }
          ],
          "internalType": "struct Patch.Rectangle",
          "name": "patchBounds",
          "type": "tuple"
        },
        {
          "internalType": "address",
          "name": "to",
          "type": "address"
        }
      ],
      "name": "mintPatchTo",
      "outputs": [],
      "stateMutability": "nonpayable",
      "type": "function"
    },
    {
      "inputs": [],
      "name": "mintedTokens",
      "outputs": [
        {
          "internalType": "uint256",
          "name": "",
          "type": "uint256"
        }
      ],
      "stateMutability": "view",
      "type": "function"
    },
    {
      "inputs": [],
      "name": "owner",
      "outputs": [
        {
          "internalType": "address",
          "name": "",
          "type": "address"
        }
      ],
      "stateMutability": "view",
      "type": "function"
    },
    {
      "inputs": [],
      "name": "renounceOwnership",
      "outputs": [],
      "stateMutability": "nonpayable",
      "type": "function"
    },
    {
      "inputs": [
        {
          "internalType": "uint256",
          "name": "",
          "type": "uint256"
        },
        {
          "internalType": "uint256",
          "name": "value",
          "type": "uint256"
        }
      ],
      "name": "royaltyInfo",
      "outputs": [
        {
          "internalType": "address",
          "name": "receiver",
          "type": "address"
        },
        {
          "internalType": "uint256",
          "name": "royaltyAmount",
          "type": "uint256"
        }
      ],
      "stateMutability": "view",
      "type": "function"
    },
    {
      "inputs": [
        {
          "internalType": "address",
          "name": "from",
          "type": "address"
        },
        {
          "internalType": "address",
          "name": "to",
          "type": "address"
        },
        {
          "internalType": "uint256[]",
          "name": "ids",
          "type": "uint256[]"
        },
        {
          "internalType": "uint256[]",
          "name": "amounts",
          "type": "uint256[]"
        },
        {
          "internalType": "bytes",
          "name": "data",
          "type": "bytes"
        }
      ],
      "name": "safeBatchTransferFrom",
      "outputs": [],
      "stateMutability": "nonpayable",
      "type": "function"
    },
    {
      "inputs": [
        {
          "internalType": "address",
          "name": "from",
          "type": "address"
        },
        {
          "internalType": "address",
          "name": "to",
          "type": "address"
        },
        {
          "internalType": "uint256",
          "name": "id",
          "type": "uint256"
        },
        {
          "internalType": "uint256",
          "name": "amount",
          "type": "uint256"
        },
        {
          "internalType": "bytes",
          "name": "data",
          "type": "bytes"
        }
      ],
      "name": "safeTransferFrom",
      "outputs": [],
      "stateMutability": "nonpayable",
      "type": "function"
    },
    {
      "inputs": [
        {
          "internalType": "address",
          "name": "operator",
          "type": "address"
        },
        {
          "internalType": "bool",
          "name": "approved",
          "type": "bool"
        }
      ],
      "name": "setApprovalForAll",
      "outputs": [],
      "stateMutability": "nonpayable",
      "type": "function"
    },
    {
      "inputs": [
        {
          "internalType": "string",
          "name": "newBaseUrl",
          "type": "string"
        }
      ],
      "name": "setBaseUrl",
      "outputs": [],
      "stateMutability": "nonpayable",
      "type": "function"
    },
    {
      "inputs": [
        {
          "components": [
            {
              "internalType": "address",
              "name": "target",
              "type": "address"
            },
            {
              "internalType": "uint8",
              "name": "points",
              "type": "uint8"
            }
          ],
          "internalType": "struct ERC1155NFT.RoyaltyConfig",
          "name": "newConfig",
          "type": "tuple"
        }
      ],
      "name": "setRoyaltyConfig",
      "outputs": [],
      "stateMutability": "nonpayable",
      "type": "function"
    },
    {
      "inputs": [
        {
          "internalType": "bytes4",
          "name": "interfaceId",
          "type": "bytes4"
        }
      ],
      "name": "supportsInterface",
      "outputs": [
        {
          "internalType": "bool",
          "name": "",
          "type": "bool"
        }
      ],
      "stateMutability": "view",
      "type": "function"
    },
    {
      "inputs": [
        {
          "internalType": "address",
          "name": "newOwner",
          "type": "address"
        }
      ],
      "name": "transferOwnership",
      "outputs": [],
      "stateMutability": "nonpayable",
      "type": "function"
    },
    {
      "inputs": [
        {
          "internalType": "uint256",
          "name": "id",
          "type": "uint256"
        }
      ],
      "name": "uri",
      "outputs": [
        {
          "internalType": "string",
          "name": "",
          "type": "string"
        }
      ],
      "stateMutability": "view",
      "type": "function"
    },
    {
      "inputs": [
        {
          "internalType": "address payable",
          "name": "wallet",
          "type": "address"
        },
        {
          "internalType": "uint256",
          "name": "amount",
          "type": "uint256"
        }
      ],
      "name": "withdraw",
      "outputs": [],
      "stateMutability": "nonpayable",
      "type": "function"
    }
  ],
  "transactionHash": "0x625982c7e487424a1753c694a126b82074640471d39a32d7e36492de00d6cd2d",
  "args": [
    "0xc78cBB3a909e0168991BF3e5409dc48FC0BC9648",
    "https://pixels.watch/api/v1/",
    "0x1E525EEAF261cA41b809884CBDE9DD9E1619573A"
  ],
  "numDeployments": 3,
  "solcInputHash": "72a1fcedc7473ee55f9322b776bb635e",
  "bytecode": "0x60806040526000600155600780546001600160a01b03191690553480156200002657600080fd5b50604051620046cc380380620046cc833981016040819052620000499162000261565b816040516020016200005c919062000341565b60408051808303601f1901815291905281620000783362000105565b81516200008d90600590602085019062000155565b50600380546001600160a01b03199081166001600160a01b039384161790915560408051808201909152338082526046602090920191909152600680546001600160a81b03191660ff60a01b1990921691909117602360a11b17905560078054909116959091169490941790935550620003ab915050565b600080546001600160a01b038381166001600160a01b0319831681178455604051919092169283917f8be0079c531659141344cd1fd0a4f28419497f9722a3daafe3b4186f6b6457e09190a35050565b82805462000163906200036f565b90600052602060002090601f016020900481019282620001875760008555620001d2565b82601f10620001a257805160ff1916838001178555620001d2565b82800160010185558215620001d2579182015b82811115620001d2578251825591602001919060010190620001b5565b50620001e0929150620001e4565b5090565b5b80821115620001e05760008155600101620001e5565b80516001600160a01b03811681146200021357600080fd5b919050565b634e487b7160e01b600052604160045260246000fd5b60005b838110156200024b57818101518382015260200162000231565b838111156200025b576000848401525b50505050565b6000806000606084860312156200027757600080fd5b6200028284620001fb565b60208501519093506001600160401b0380821115620002a057600080fd5b818601915086601f830112620002b557600080fd5b815181811115620002ca57620002ca62000218565b604051601f8201601f19908116603f01168101908382118183101715620002f557620002f562000218565b816040528281528960208487010111156200030f57600080fd5b620003228360208301602088016200022e565b80965050505050506200033860408501620001fb565b90509250925092565b60008251620003558184602087016200022e565b67706174636865732f60c01b920191825250600801919050565b600181811c908216806200038457607f821691505b602082108103620003a557634e487b7160e01b600052602260045260246000fd5b50919050565b61431180620003bb6000396000f3fe608060405234801561001057600080fd5b50600436106101ad5760003560e01c80638d75fe05116100ee578063c7c3268b11610097578063ee006bbf11610071578063ee006bbf1461041c578063f242432a1461042f578063f2fde38b14610442578063f3fef3a31461045557600080fd5b8063c7c3268b146103ee578063e8a3d48514610401578063e985e9c51461040957600080fd5b8063a22cb465116100c8578063a22cb465146103b5578063afec362f146103c8578063c494975f146103db57600080fd5b80638d75fe05146103485780638da5cb5b146103515780639230d3b11461036f57600080fd5b80633a55c4091161015b578063535597b511610135578063535597b5146102d55780635ea453c81461030d578063715018a61461032d57806371be7faf1461033557600080fd5b80633a55c409146102825780634da488b6146102a25780634e1273f4146102b557600080fd5b80630e89341c1161018c5780630e89341c146102105780632a55205a146102305780632eb2c2d61461026f57600080fd5b8062fdd58e146101b257806301ffc9a7146101d8578063044e73f8146101fb575b600080fd5b6101c56101c0366004613253565b610468565b6040519081526020015b60405180910390f35b6101eb6101e63660046132ad565b6105be565b60405190151581526020016101cf565b61020e6102093660046132d1565b6106ed565b005b61022361021e36600461330a565b610f62565b6040516101cf919061339d565b61024361023e3660046133b0565b611001565b6040805173ffffffffffffffffffffffffffffffffffffffff90931683526020830191909152016101cf565b61020e61027d36600461357d565b61105b565b61029561029036600461362b565b6110fe565b6040516101cf9190613660565b61020e6102b03660046136ba565b61120c565b6102c86102c336600461371f565b6112fb565b6040516101cf9190613827565b6102e86102e336600461330a565b61142d565b60405173ffffffffffffffffffffffffffffffffffffffff90911681526020016101cf565b6101c561031b36600461330a565b60009081526009602052604090205490565b61020e61146a565b6102e861034336600461330a565b6114f7565b6101c560015481565b60005473ffffffffffffffffffffffffffffffffffffffff166102e8565b61038261037d36600461330a565b61151b565b6040516101cf91908151815260208083015190820152604080830151908201526060918201519181019190915260800190565b61020e6103c336600461383a565b61158b565b61020e6103d6366004613878565b61159a565b6102956103e936600461362b565b611933565b61020e6103fc3660046138f7565b611a27565b610223611abb565b6101eb610417366004613940565b611ae3565b61020e61042a36600461396e565b611be1565b61020e61043d366004613993565b611f84565b61020e6104503660046139fc565b6120f5565b61020e610463366004613253565b612225565b600073ffffffffffffffffffffffffffffffffffffffff83166104ec576040517f08c379a000000000000000000000000000000000000000000000000000000000815260206004820152601f60248201527f455243313135353a2062616c616e636520666f7220616464726573732830290060448201526064015b60405180910390fd5b6001548210610557576040517f08c379a000000000000000000000000000000000000000000000000000000000815260206004820152601460248201527f546f6b656e20646f6573206e6f7420657869737400000000000000000000000060448201526064016104e3565b8273ffffffffffffffffffffffffffffffffffffffff166002838154811061058157610581613a19565b60009182526020909120015473ffffffffffffffffffffffffffffffffffffffff16146105af5760006105b2565b60015b60ff1690505b92915050565b60007fffffffff0000000000000000000000000000000000000000000000000000000082167fd9b67a2600000000000000000000000000000000000000000000000000000000148061065157507fffffffff0000000000000000000000000000000000000000000000000000000082167f0e89341c00000000000000000000000000000000000000000000000000000000145b8061069d57507fffffffff0000000000000000000000000000000000000000000000000000000082167f2a55205a00000000000000000000000000000000000000000000000000000000145b806105b857507f01ffc9a7000000000000000000000000000000000000000000000000000000007fffffffff000000000000000000000000000000000000000000000000000000008316146105b8565b60008381526008602081815260408084208151608080820184528254825260018084015483870152600280850154848701526003948501546060808601919091528b8a529787528589208651808501885281548152928101548389015290810154828701529093015483870152835190810184528681529384018690529183018590529282019390935281518351036109125781604001518360400151146107f1576040517f08c379a000000000000000000000000000000000000000000000000000000000815260206004820152601060248201527f4d69736d6174636865642073697a65730000000000000000000000000000000060448201526064016104e3565b816060015182602001516108059190613a77565b8360200151036108555760405180608001604052808360000151815260200183602001518152602001836040015181526020018460600151846060015161084c9190613aeb565b90529050610ab2565b826060015183602001516108699190613a77565b8260200151036108b05760405180608001604052808460000151815260200184602001518152602001846040015181526020018360600151856060015161084c9190613aeb565b6040517f08c379a000000000000000000000000000000000000000000000000000000000815260206004820152600c60248201527f4e6f742061646a6163656e74000000000000000000000000000000000000000060448201526064016104e3565b8160200151836020015103610a50578160600151836060015114610992576040517f08c379a000000000000000000000000000000000000000000000000000000000815260206004820152601060248201527f4d69736d6174636865642073697a65730000000000000000000000000000000060448201526064016104e3565b604082015182516109a39190613a77565b8351036109f15760405180608001604052808360000151815260200183602001518152602001846040015184604001516109dd9190613aeb565b815260200183606001518152509050610ab2565b60408301518351610a029190613a77565b8251036108b0576040518060800160405280846000015181526020018460200151815260200183604001518560400151610a3c9190613aeb565b815260200184606001518152509050610ab2565b6040517f08c379a000000000000000000000000000000000000000000000000000000000815260206004820152601e60248201527f526573756c74696e67207368617065206e6f742072656374616e676c652e000060448201526064016104e3565b6001805460009182610ac383613b03565b90915550600081815260086020908152604080832086518155918601516001830155850151600282015560608501516003909101559091505b8260400151811015610b785760005b8360600151811015610b65576000610b41838660000151610b2c9190613a77565b838760200151610b3c9190613a77565b6122ee565b60009081526009602052604090208490555080610b5d81613b03565b915050610b0b565b5080610b7081613b03565b915050610afc565b506002805460018101825560008281527f405787fa12a823e0f2b7631cc41b3ba8828b3321ca811111fa75cd3aa3bb5ace90910180547fffffffffffffffffffffffff00000000000000000000000000000000000000001673ffffffffffffffffffffffffffffffffffffffff8916179055604080518381526060810182529192906020830190803683370190505090508781600081518110610c1d57610c1d613a19565b6020026020010181815250508681600181518110610c3d57610c3d613a19565b602090810291909101015260408051600280825260608201909252600091816020016020820280368337019050509050600181600081518110610c8257610c82613a19565b602002602001018181525050600181600181518110610ca357610ca3613a19565b6020026020010181815250508673ffffffffffffffffffffffffffffffffffffffff1660028a81548110610cd957610cd9613a19565b60009182526020909120015473ffffffffffffffffffffffffffffffffffffffff1614610d62576040517f08c379a000000000000000000000000000000000000000000000000000000000815260206004820152601d60248201527f455243313135353a20696e73756666696369656e742062616c616e636500000060448201526064016104e3565b600060028a81548110610d7757610d77613a19565b600091825260209091200180547fffffffffffffffffffffffff00000000000000000000000000000000000000001673ffffffffffffffffffffffffffffffffffffffff92831617905560028054918916918a908110610dd957610dd9613a19565b60009182526020909120015473ffffffffffffffffffffffffffffffffffffffff1614610e62576040517f08c379a000000000000000000000000000000000000000000000000000000000815260206004820152601d60248201527f455243313135353a20696e73756666696369656e742062616c616e636500000060448201526064016104e3565b600060028981548110610e7757610e77613a19565b6000918252602082200180547fffffffffffffffffffffffff00000000000000000000000000000000000000001673ffffffffffffffffffffffffffffffffffffffff938416179055604051909189169033907f4a39dc06d4c0dbc64b70af90fd698a233a518aa5d07e595d983b8c0526c8f7fb90610ef99087908790613b3b565b60405180910390a4604080518481526001602082015273ffffffffffffffffffffffffffffffffffffffff89169160009133917fc3d58168c5ae7397731d063d5bbf3d657854427343f4c083240f7aacaa2d0f62910160405180910390a4505050505050505050565b60606001548210610fcf576040517f08c379a000000000000000000000000000000000000000000000000000000000815260206004820152601460248201527f546f6b656e20646f6573206e6f7420657869737400000000000000000000000060448201526064016104e3565b6005610fda836124d6565b604051602001610feb929190613c8c565b6040516020818303038152906040529050919050565b60065473ffffffffffffffffffffffffffffffffffffffff8116906000906103e8906110489074010000000000000000000000000000000000000000900460ff1685613cda565b6110529190613d46565b90509250929050565b73ffffffffffffffffffffffffffffffffffffffff851633148061108457506110848533611ae3565b6110ea576040517f08c379a000000000000000000000000000000000000000000000000000000000815260206004820152601f60248201527f455243313135353a2063616c6c6572206973206e6f7420617070726f7665640060448201526064016104e3565b6110f78585858585612613565b5050505050565b60606000825167ffffffffffffffff81111561111c5761111c6133d2565b604051908082528060200260200182016040528015611145578160200160208202803683370190505b50905060005b83518110156112055760026009600086848151811061116c5761116c613a19565b60200260200101518152602001908152602001600020548154811061119357611193613a19565b9060005260206000200160009054906101000a900473ffffffffffffffffffffffffffffffffffffffff168282815181106111d0576111d0613a19565b73ffffffffffffffffffffffffffffffffffffffff909216602092830291909101909101526111fe81613b03565b905061114b565b5092915050565b60005473ffffffffffffffffffffffffffffffffffffffff16331461128d576040517f08c379a000000000000000000000000000000000000000000000000000000000815260206004820181905260248201527f4f776e61626c653a2063616c6c6572206973206e6f7420746865206f776e657260448201526064016104e3565b80516006805460209093015160ff1674010000000000000000000000000000000000000000027fffffffffffffffffffffff00000000000000000000000000000000000000000090931673ffffffffffffffffffffffffffffffffffffffff90921691909117919091179055565b60608151835114611368576040517f08c379a000000000000000000000000000000000000000000000000000000000815260206004820152601e60248201527f455243313135353a206163636f756e74732f696473206d69736d61746368000060448201526064016104e3565b6000835167ffffffffffffffff811115611384576113846133d2565b6040519080825280602002602001820160405280156113ad578160200160208202803683370190505b50905060005b8451811015611425576113f88582815181106113d1576113d1613a19565b60200260200101518583815181106113eb576113eb613a19565b6020026020010151610468565b82828151811061140a5761140a613a19565b602090810291909101015261141e81613b03565b90506113b3565b509392505050565b60006002828154811061144257611442613a19565b60009182526020909120015473ffffffffffffffffffffffffffffffffffffffff1692915050565b60005473ffffffffffffffffffffffffffffffffffffffff1633146114eb576040517f08c379a000000000000000000000000000000000000000000000000000000000815260206004820181905260248201527f4f776e61626c653a2063616c6c6572206973206e6f7420746865206f776e657260448201526064016104e3565b6114f56000612a37565b565b60008181526009602052604081205460028054909190811061144257611442613a19565b6115466040518060800160405280600081526020016000815260200160008152602001600081525090565b50600090815260086020908152604091829020825160808101845281548152600182015492810192909252600281015492820192909252600390910154606082015290565b611596338383612aac565b5050565b6000826060015183604001516115b09190613cda565b67ffffffffffffffff8111156115c8576115c86133d2565b6040519080825280602002602001820160405280156115f1578160200160208202803683370190505b5060018054919250600091908261160783613b03565b90915550600081815260086020908152604080832088518155918801516001830155870151600282015560608701516003909101559091505b84604001518110156117ec5760005b85606001518110156117d95760006116808388600001516116709190613a77565b838960200151610b3c9190613a77565b9050600760009054906101000a900473ffffffffffffffffffffffffffffffffffffffff1673ffffffffffffffffffffffffffffffffffffffff16639aeea0636040518163ffffffff1660e01b8152600401602060405180830381865afa1580156116ef573d6000803e3d6000fd5b505050506040513d601f19601f820116820180604052508101906117139190613d5a565b811061177b576040517f08c379a000000000000000000000000000000000000000000000000000000000815260206004820152601260248201527f52656374206f7574206f6620626f756e6473000000000000000000000000000060448201526064016104e3565b80858489604001518561178e9190613cda565b6117989190613aeb565b815181106117a8576117a8613a19565b60209081029190910181019190915260009182526009905260409020839055806117d181613b03565b91505061164f565b50806117e481613b03565b915050611640565b506007546040517f7d1391b600000000000000000000000000000000000000000000000000000000815273ffffffffffffffffffffffffffffffffffffffff90911690637d1391b6906118459086908690600401613d73565b600060405180830381600087803b15801561185f57600080fd5b505af1158015611873573d6000803e3d6000fd5b5050600280546001808201835560009283527f405787fa12a823e0f2b7631cc41b3ba8828b3321ca811111fa75cd3aa3bb5ace90910180547fffffffffffffffffffffffff00000000000000000000000000000000000000001673ffffffffffffffffffffffffffffffffffffffff891690811790915560408051878152602081019390935290945091925033917fc3d58168c5ae7397731d063d5bbf3d657854427343f4c083240f7aacaa2d0f6291015b60405180910390a450505050565b60606000825167ffffffffffffffff811115611951576119516133d2565b60405190808252806020026020018201604052801561197a578160200160208202803683370190505b50905060005b835181101561120557600284828151811061199d5761199d613a19565b6020026020010151815481106119b5576119b5613a19565b9060005260206000200160009054906101000a900473ffffffffffffffffffffffffffffffffffffffff168282815181106119f2576119f2613a19565b73ffffffffffffffffffffffffffffffffffffffff90921660209283029190910190910152611a2081613b03565b9050611980565b60005473ffffffffffffffffffffffffffffffffffffffff163314611aa8576040517f08c379a000000000000000000000000000000000000000000000000000000000815260206004820181905260248201527f4f776e61626c653a2063616c6c6572206973206e6f7420746865206f776e657260448201526064016104e3565b80516115969060059060208401906131a1565b60606005604051602001611acf9190613da2565b604051602081830303815290604052905090565b6003546040517fc455279100000000000000000000000000000000000000000000000000000000815273ffffffffffffffffffffffffffffffffffffffff848116600483015260009281169190841690829063c455279190602401602060405180830381865afa158015611b5b573d6000803e3d6000fd5b505050506040513d601f19601f82011682018060405250810190611b7f9190613ddb565b73ffffffffffffffffffffffffffffffffffffffff1603611ba45760019150506105b8565b505073ffffffffffffffffffffffffffffffffffffffff918216600090815260046020908152604080832093909416825291909152205460ff1690565b73ffffffffffffffffffffffffffffffffffffffff8116331480611c0a5750611c0a8133611ae3565b611c70576040517f08c379a000000000000000000000000000000000000000000000000000000000815260206004820152601f60248201527f455243313135353a2063616c6c6572206973206e6f7420617070726f7665640060448201526064016104e3565b8073ffffffffffffffffffffffffffffffffffffffff1660028381548110611c9a57611c9a613a19565b60009182526020909120015473ffffffffffffffffffffffffffffffffffffffff1614611d23576040517f08c379a000000000000000000000000000000000000000000000000000000000815260206004820152601d60248201527f455243313135353a20696e73756666696369656e742062616c616e636500000060448201526064016104e3565b600082815260086020908152604080832081516080810183528154815260018201549381019390935260028101549183018290526003015460608301819052919291611d6e91613cda565b67ffffffffffffffff811115611d8657611d866133d2565b604051908082528060200260200182016040528015611daf578160200160208202803683370190505b50905060005b8260400151811015611e565760005b8360600151811015611e43576000611de5838660000151610b2c9190613a77565b9050808484876040015185611dfa9190613cda565b611e049190613aeb565b81518110611e1457611e14613a19565b602090810291909101810191909152600091825260099052604081205580611e3b81613b03565b915050611dc4565b5080611e4e81613b03565b915050611db5565b506007546040517fa7701fa500000000000000000000000000000000000000000000000000000000815273ffffffffffffffffffffffffffffffffffffffff9091169063a7701fa590611eaf9086908590600401613d73565b600060405180830381600087803b158015611ec957600080fd5b505af1158015611edd573d6000803e3d6000fd5b50505050600060028581548110611ef657611ef6613a19565b60009182526020822001805473ffffffffffffffffffffffffffffffffffffffff9384167fffffffffffffffffffffffff0000000000000000000000000000000000000000909116179055604051909185169033907fc3d58168c5ae7397731d063d5bbf3d657854427343f4c083240f7aacaa2d0f6290611925908990600190918252602082015260400190565b6001548310611fef576040517f08c379a000000000000000000000000000000000000000000000000000000000815260206004820152601460248201527f546f6b656e20646f6573206e6f7420657869737400000000000000000000000060448201526064016104e3565b81600114612059576040517f08c379a000000000000000000000000000000000000000000000000000000000815260206004820152601a60248201527f43616e6e6f74207472616e7366657220616d6f756e74203e203100000000000060448201526064016104e3565b73ffffffffffffffffffffffffffffffffffffffff851633148061208257506120828533611ae3565b6120e8576040517f08c379a000000000000000000000000000000000000000000000000000000000815260206004820152601f60248201527f455243313135353a2063616c6c6572206973206e6f7420617070726f7665640060448201526064016104e3565b6110f78585858585612bd9565b60005473ffffffffffffffffffffffffffffffffffffffff163314612176576040517f08c379a000000000000000000000000000000000000000000000000000000000815260206004820181905260248201527f4f776e61626c653a2063616c6c6572206973206e6f7420746865206f776e657260448201526064016104e3565b73ffffffffffffffffffffffffffffffffffffffff8116612219576040517f08c379a000000000000000000000000000000000000000000000000000000000815260206004820152602660248201527f4f776e61626c653a206e6577206f776e657220697320746865207a65726f206160448201527f646472657373000000000000000000000000000000000000000000000000000060648201526084016104e3565b61222281612a37565b50565b60005473ffffffffffffffffffffffffffffffffffffffff1633146122a6576040517f08c379a000000000000000000000000000000000000000000000000000000000815260206004820181905260248201527f4f776e61626c653a2063616c6c6572206973206e6f7420746865206f776e657260448201526064016104e3565b60405173ffffffffffffffffffffffffffffffffffffffff83169082156108fc029083906000818181858888f193505050501580156122e9573d6000803e3d6000fd5b505050565b6000821580156122fc575081155b15612309575060006105b8565b826001148015612317575081155b15612324575060016105b8565b8260011480156123535750817fffffffffffffffffffffffffffffffffffffffffffffffffffffffffffffffff145b15612360575060026105b8565b8215801561238d5750817fffffffffffffffffffffffffffffffffffffffffffffffffffffffffffffffff145b1561239a575060036105b8565b60006123a584612db7565b905060006123b284612db7565b9050600080828413806123cf575082841480156123cf5750600087125b15612436576000871315612429576123e8600188613df8565b9150600186856123f9856004613e6c565b612404906001613a77565b61240e9190613a77565b6124189190613df8565b6124229190613df8565b90506124aa565b8391506124228787613df8565b600086131561246357859150868361244f846002613e6c565b6124599190613a77565b6124229190613a77565b61246e600184613df8565b9150858761247d846006613e6c565b612488906001613a77565b6124929190613df8565b61249c9190613df8565b6124a7906001613a77565b90505b8060026124b78482613e6c565b6124c191906140d8565b6124cb9190613a77565b979650505050505050565b60608160000361251957505060408051808201909152600181527f3000000000000000000000000000000000000000000000000000000000000000602082015290565b8160005b8115612543578061252d81613b03565b915061253c9050600a83613d46565b915061251d565b60008167ffffffffffffffff81111561255e5761255e6133d2565b6040519080825280601f01601f191660200182016040528015612588576020820181803683370190505b5090505b841561260b5761259d6001836140e7565b91506125aa600a866140fe565b6125b5906030613aeb565b60f81b8183815181106125ca576125ca613a19565b60200101907effffffffffffffffffffffffffffffffffffffffffffffffffffffffffffff1916908160001a905350612604600a86613d46565b945061258c565b949350505050565b815183511461267e576040517f08c379a000000000000000000000000000000000000000000000000000000000815260206004820152601d60248201527f455243313135353a206964732f616d6f756e7473206d69736d6174636800000060448201526064016104e3565b73ffffffffffffffffffffffffffffffffffffffff84166126fb576040517f08c379a000000000000000000000000000000000000000000000000000000000815260206004820152601f60248201527f455243313135353a207472616e7366657220746f20616464726573732830290060448201526064016104e3565b6000835167ffffffffffffffff811115612717576127176133d2565b604051908082528060200260200182016040528015612740578160200160208202803683370190505b50905060005b84518110156129a257600085828151811061276357612763613a19565b60200260200101519050600085838151811061278157612781613a19565b6020026020010151905060015482106127f6576040517f08c379a000000000000000000000000000000000000000000000000000000000815260206004820152601460248201527f546f6b656e20646f6573206e6f7420657869737400000000000000000000000060448201526064016104e3565b80600114612860576040517f08c379a000000000000000000000000000000000000000000000000000000000815260206004820152601a60248201527f43616e6e6f74207472616e7366657220616d6f756e74203e203100000000000060448201526064016104e3565b8873ffffffffffffffffffffffffffffffffffffffff166002838154811061288a5761288a613a19565b60009182526020909120015473ffffffffffffffffffffffffffffffffffffffff1614612913576040517f08c379a000000000000000000000000000000000000000000000000000000000815260206004820152601d60248201527f455243313135353a20696e73756666696369656e742062616c616e636500000060448201526064016104e3565b876002838154811061292757612927613a19565b9060005260206000200160006101000a81548173ffffffffffffffffffffffffffffffffffffffff021916908373ffffffffffffffffffffffffffffffffffffffff160217905550600084848151811061298357612983613a19565b60200260200101818152505050508061299b90613b03565b9050612746565b508473ffffffffffffffffffffffffffffffffffffffff168673ffffffffffffffffffffffffffffffffffffffff163373ffffffffffffffffffffffffffffffffffffffff167f4a39dc06d4c0dbc64b70af90fd698a233a518aa5d07e595d983b8c0526c8f7fb8785604051612a19929190613b3b565b60405180910390a4612a2f338787878787612dd3565b505050505050565b6000805473ffffffffffffffffffffffffffffffffffffffff8381167fffffffffffffffffffffffff0000000000000000000000000000000000000000831681178455604051919092169283917f8be0079c531659141344cd1fd0a4f28419497f9722a3daafe3b4186f6b6457e09190a35050565b8173ffffffffffffffffffffffffffffffffffffffff168373ffffffffffffffffffffffffffffffffffffffff1603612b41576040517f08c379a000000000000000000000000000000000000000000000000000000000815260206004820152601c60248201527f455243313135353a2063616e6e6f7420617070726f76652073656c660000000060448201526064016104e3565b73ffffffffffffffffffffffffffffffffffffffff83811660008181526004602090815260408083209487168084529482529182902080547fffffffffffffffffffffffffffffffffffffffffffffffffffffffffffffff001686151590811790915591519182527f17307eab39ab6107e8899845ad3d59bd9653f200f220920489ca2b5937696c31910160405180910390a3505050565b73ffffffffffffffffffffffffffffffffffffffff8416612c56576040517f08c379a000000000000000000000000000000000000000000000000000000000815260206004820152601f60248201527f455243313135353a207472616e7366657220746f20616464726573732830290060448201526064016104e3565b8473ffffffffffffffffffffffffffffffffffffffff1660028481548110612c8057612c80613a19565b60009182526020909120015473ffffffffffffffffffffffffffffffffffffffff1614612d09576040517f08c379a000000000000000000000000000000000000000000000000000000000815260206004820152601d60248201527f455243313135353a20696e73756666696369656e742062616c616e636500000060448201526064016104e3565b8360028481548110612d1d57612d1d613a19565b60009182526020918290200180547fffffffffffffffffffffffff00000000000000000000000000000000000000001673ffffffffffffffffffffffffffffffffffffffff938416179055604080518681529182018590528683169288169133917fc3d58168c5ae7397731d063d5bbf3d657854427343f4c083240f7aacaa2d0f62910160405180910390a46110f733868686868661301a565b600080821215612dcf57612dca82614112565b6105b8565b5090565b73ffffffffffffffffffffffffffffffffffffffff84163b15612a2f576040517fbc197c8100000000000000000000000000000000000000000000000000000000815273ffffffffffffffffffffffffffffffffffffffff85169063bc197c8190612e4a908990899088908890889060040161414a565b6020604051808303816000875af1925050508015612ea3575060408051601f3d9081017fffffffffffffffffffffffffffffffffffffffffffffffffffffffffffffffe0168201909252612ea0918101906141b5565b60015b612f6657612eaf6141d2565b806308c379a003612f025750612ec36141ee565b80612ece5750612f04565b806040517f08c379a00000000000000000000000000000000000000000000000000000000081526004016104e3919061339d565b505b6040517f08c379a000000000000000000000000000000000000000000000000000000000815260206004820152601f60248201527f455243313135353a20746f206e6f74204552433131353552656365697665720060448201526064016104e3565b7fffffffff0000000000000000000000000000000000000000000000000000000081167fbc197c810000000000000000000000000000000000000000000000000000000014613011576040517f08c379a000000000000000000000000000000000000000000000000000000000815260206004820152601f60248201527f455243313135353a204552433131353552656365697665722072656a6563740060448201526064016104e3565b50505050505050565b73ffffffffffffffffffffffffffffffffffffffff84163b15612a2f576040517ff23a6e6100000000000000000000000000000000000000000000000000000000815273ffffffffffffffffffffffffffffffffffffffff85169063f23a6e61906130919089908990889088908890600401614296565b6020604051808303816000875af19250505080156130ea575060408051601f3d9081017fffffffffffffffffffffffffffffffffffffffffffffffffffffffffffffffe01682019092526130e7918101906141b5565b60015b6130f657612eaf6141d2565b7fffffffff0000000000000000000000000000000000000000000000000000000081167ff23a6e610000000000000000000000000000000000000000000000000000000014613011576040517f08c379a000000000000000000000000000000000000000000000000000000000815260206004820152601f60248201527f455243313135353a204552433131353552656365697665722072656a6563740060448201526064016104e3565b8280546131ad90613b69565b90600052602060002090601f0160209004810192826131cf5760008555613215565b82601f106131e857805160ff1916838001178555613215565b82800160010185558215613215579182015b828111156132155782518255916020019190600101906131fa565b50612dcf9291505b80821115612dcf576000815560010161321d565b73ffffffffffffffffffffffffffffffffffffffff8116811461222257600080fd5b6000806040838503121561326657600080fd5b823561327181613231565b946020939093013593505050565b7fffffffff000000000000000000000000000000000000000000000000000000008116811461222257600080fd5b6000602082840312156132bf57600080fd5b81356132ca8161327f565b9392505050565b6000806000606084860312156132e657600080fd5b833592506020840135915060408401356132ff81613231565b809150509250925092565b60006020828403121561331c57600080fd5b5035919050565b60005b8381101561333e578181015183820152602001613326565b8381111561334d576000848401525b50505050565b6000815180845261336b816020860160208601613323565b601f017fffffffffffffffffffffffffffffffffffffffffffffffffffffffffffffffe0169290920160200192915050565b6020815260006132ca6020830184613353565b600080604083850312156133c357600080fd5b50508035926020909101359150565b7f4e487b7100000000000000000000000000000000000000000000000000000000600052604160045260246000fd5b7fffffffffffffffffffffffffffffffffffffffffffffffffffffffffffffffe0601f830116810181811067ffffffffffffffff82111715613445576134456133d2565b6040525050565b600067ffffffffffffffff821115613466576134666133d2565b5060051b60200190565b600082601f83011261348157600080fd5b8135602061348e8261344c565b60405161349b8282613401565b83815260059390931b85018201928281019150868411156134bb57600080fd5b8286015b848110156134d657803583529183019183016134bf565b509695505050505050565b600067ffffffffffffffff8311156134fb576134fb6133d2565b60405161353060207fffffffffffffffffffffffffffffffffffffffffffffffffffffffffffffffe0601f8701160182613401565b80915083815284848401111561354557600080fd5b83836020830137600060208583010152509392505050565b600082601f83011261356e57600080fd5b6132ca838335602085016134e1565b600080600080600060a0868803121561359557600080fd5b85356135a081613231565b945060208601356135b081613231565b9350604086013567ffffffffffffffff808211156135cd57600080fd5b6135d989838a01613470565b945060608801359150808211156135ef57600080fd5b6135fb89838a01613470565b9350608088013591508082111561361157600080fd5b5061361e8882890161355d565b9150509295509295909350565b60006020828403121561363d57600080fd5b813567ffffffffffffffff81111561365457600080fd5b61260b84828501613470565b6020808252825182820181905260009190848201906040850190845b818110156136ae57835173ffffffffffffffffffffffffffffffffffffffff168352928401929184019160010161367c565b50909695505050505050565b6000604082840312156136cc57600080fd5b6040516040810181811067ffffffffffffffff821117156136ef576136ef6133d2565b60405282356136fd81613231565b8152602083013560ff8116811461371357600080fd5b60208201529392505050565b6000806040838503121561373257600080fd5b823567ffffffffffffffff8082111561374a57600080fd5b818501915085601f83011261375e57600080fd5b8135602061376b8261344c565b6040516137788282613401565b83815260059390931b850182019282810191508984111561379857600080fd5b948201945b838610156137bf5785356137b081613231565b8252948201949082019061379d565b965050860135925050808211156137d557600080fd5b506137e285828601613470565b9150509250929050565b600081518084526020808501945080840160005b8381101561381c57815187529582019590820190600101613800565b509495945050505050565b6020815260006132ca60208301846137ec565b6000806040838503121561384d57600080fd5b823561385881613231565b91506020830135801515811461386d57600080fd5b809150509250929050565b60008082840360a081121561388c57600080fd5b608081121561389a57600080fd5b506040516080810181811067ffffffffffffffff821117156138be576138be6133d2565b80604052508335815260208401356020820152604084013560408201526060840135606082015280925050608083013561386d81613231565b60006020828403121561390957600080fd5b813567ffffffffffffffff81111561392057600080fd5b8201601f8101841361393157600080fd5b61260b848235602084016134e1565b6000806040838503121561395357600080fd5b823561395e81613231565b9150602083013561386d81613231565b6000806040838503121561398157600080fd5b82359150602083013561386d81613231565b600080600080600060a086880312156139ab57600080fd5b85356139b681613231565b945060208601356139c681613231565b93506040860135925060608601359150608086013567ffffffffffffffff8111156139f057600080fd5b61361e8882890161355d565b600060208284031215613a0e57600080fd5b81356132ca81613231565b7f4e487b7100000000000000000000000000000000000000000000000000000000600052603260045260246000fd5b7f4e487b7100000000000000000000000000000000000000000000000000000000600052601160045260246000fd5b6000808212827f7fffffffffffffffffffffffffffffffffffffffffffffffffffffffffffffff03841381151615613ab157613ab1613a48565b827f8000000000000000000000000000000000000000000000000000000000000000038412811615613ae557613ae5613a48565b50500190565b60008219821115613afe57613afe613a48565b500190565b60007fffffffffffffffffffffffffffffffffffffffffffffffffffffffffffffffff8203613b3457613b34613a48565b5060010190565b604081526000613b4e60408301856137ec565b8281036020840152613b6081856137ec565b95945050505050565b600181811c90821680613b7d57607f821691505b602082108103613bb6577f4e487b7100000000000000000000000000000000000000000000000000000000600052602260045260246000fd5b50919050565b8054600090600181811c9080831680613bd657607f831692505b60208084108203613c10577f4e487b7100000000000000000000000000000000000000000000000000000000600052602260045260246000fd5b818015613c245760018114613c5357613c80565b7fffffffffffffffffffffffffffffffffffffffffffffffffffffffffffffff00861689528489019650613c80565b60008881526020902060005b86811015613c785781548b820152908501908301613c5f565b505084890196505b50505050505092915050565b6000613c988285613bbc565b7f746f6b656e2f000000000000000000000000000000000000000000000000000081528351613cce816006840160208801613323565b01600601949350505050565b6000817fffffffffffffffffffffffffffffffffffffffffffffffffffffffffffffffff0483118215151615613d1257613d12613a48565b500290565b7f4e487b7100000000000000000000000000000000000000000000000000000000600052601260045260246000fd5b600082613d5557613d55613d17565b500490565b600060208284031215613d6c57600080fd5b5051919050565b73ffffffffffffffffffffffffffffffffffffffff8316815260406020820152600061260b60408301846137ec565b6000613dae8284613bbc565b7f636f6e747261637400000000000000000000000000000000000000000000000081526008019392505050565b600060208284031215613ded57600080fd5b81516132ca81613231565b6000808312837f800000000000000000000000000000000000000000000000000000000000000001831281151615613e3257613e32613a48565b837f7fffffffffffffffffffffffffffffffffffffffffffffffffffffffffffffff018313811615613e6657613e66613a48565b50500390565b60007f7fffffffffffffffffffffffffffffffffffffffffffffffffffffffffffffff600084136000841385830485118282161615613ead57613ead613a48565b7f80000000000000000000000000000000000000000000000000000000000000006000871286820588128184161615613ee857613ee8613a48565b60008712925087820587128484161615613f0457613f04613a48565b87850587128184161615613f1a57613f1a613a48565b505050929093029392505050565b80825b6001808611613f3a5750613f85565b817f7fffffffffffffffffffffffffffffffffffffffffffffffffffffffffffffff04821115613f6c57613f6c613a48565b80861615613f7957918102915b9490941c938002613f2b565b935093915050565b6000828015613fa35760018114613fad57613fb6565b60019150506105b8565b829150506105b8565b5081613fc4575060006105b8565b50600160008213808214613fdd57801561401457614046565b827f7fffffffffffffffffffffffffffffffffffffffffffffffffffffffffffffff0483111561400f5761400f613a48565b614046565b827f7fffffffffffffffffffffffffffffffffffffffffffffffffffffffffffffff0583121561404657614046613a48565b50808316156140525750805b6140628360011c83840283613f28565b807f7fffffffffffffffffffffffffffffffffffffffffffffffffffffffffffffff04821160008313161561409957614099613a48565b807f80000000000000000000000000000000000000000000000000000000000000000582126000831216156140d0576140d0613a48565b029392505050565b60006132ca60ff841683613f8d565b6000828210156140f9576140f9613a48565b500390565b60008261410d5761410d613d17565b500690565b60007f8000000000000000000000000000000000000000000000000000000000000000820361414357614143613a48565b5060000390565b600073ffffffffffffffffffffffffffffffffffffffff808816835280871660208401525060a0604083015261418360a08301866137ec565b828103606084015261419581866137ec565b905082810360808401526141a98185613353565b98975050505050505050565b6000602082840312156141c757600080fd5b81516132ca8161327f565b600060033d11156141eb5760046000803e5060005160e01c5b90565b600060443d10156141fc5790565b6040517ffffffffffffffffffffffffffffffffffffffffffffffffffffffffffffffffc803d016004833e81513d67ffffffffffffffff816024840111818411171561424a57505050505090565b82850191508151818111156142625750505050505090565b843d870101602082850101111561427c5750505050505090565b61428b60208286010187613401565b509095945050505050565b600073ffffffffffffffffffffffffffffffffffffffff808816835280871660208401525084604083015283606083015260a060808301526124cb60a083018461335356fea2646970667358221220dbbc100e4ee958ec2bc2141637dc3f689efb10679684e5631a0d7229bc7ebc2e64736f6c634300080d0033",
  "devdoc": {
    "kind": "dev",
    "methods": {
      "balanceOf(address,uint256)": {
        "details": "See {IERC1155-balanceOf}. Requirements: - `account` cannot be the zero address."
      },
      "balanceOfBatch(address[],uint256[])": {
        "details": "See {IERC1155-balanceOfBatch}. Requirements: - `accounts` and `ids` must have the same length."
      },
      "combinePatches(uint256,uint256,address)": {
        "details": "Combine two patches. Must have the same width or heigh and be adjacent. The resulting shape must be a rectanle as well."
      },
      "contractURI()": {
        "details": "OpenSea spec metadata for the contract - always \"<baseUrl>/contract\"."
      },
      "getBounds(uint256)": {
        "details": "Gets the bounds of a given patch."
      },
      "getOwningAddress(uint256)": {
        "details": "Gets the owner of a given token."
      },
      "getOwningAddressBatch(uint256[])": {
        "details": "Gets the owner(s) of a given batch of tokens."
      },
      "getTileOwner(uint256)": {
        "details": "Gets the owner of a given tile (if a patch exists)."
      },
      "getTileOwnerBatch(uint256[])": {
        "details": "Gets the owner(s) of a given batch of tiles (if a patch exists)."
      },
      "getTilePatch(uint256)": {
        "details": "Gets the patch for a given tile (if it exists)."
      },
      "isApprovedForAll(address,address)": {
        "details": "See {IERC1155-isApprovedForAll}. This also whitelists the ProxyRegistry used by OpenSea."
      },
      "owner()": {
        "details": "Returns the address of the current owner."
      },
      "renounceOwnership()": {
        "details": "Leaves the contract without owner. It will not be possible to call `onlyOwner` functions anymore. Can only be called by the current owner. NOTE: Renouncing ownership will leave the contract without an owner, thereby removing any functionality that is only available to the owner."
      },
      "royaltyInfo(uint256,uint256)": {
        "details": "See {IERC2981-royaltyInfo}.",
        "returns": {
          "receiver": "will always be the address of the deployer of the contract.",
          "royaltyAmount": "will always be 7% of value."
        }
      },
      "safeBatchTransferFrom(address,address,uint256[],uint256[],bytes)": {
        "details": "See {IERC1155-safeBatchTransferFrom}."
      },
      "safeTransferFrom(address,address,uint256,uint256,bytes)": {
        "details": "See {IERC1155-safeTransferFrom}."
      },
      "setApprovalForAll(address,bool)": {
        "details": "See {IERC1155-setApprovalForAll}."
      },
      "supportsInterface(bytes4)": {
        "details": "See {IERC165-supportsInterface}."
      },
      "transferOwnership(address)": {
        "details": "Transfers ownership of the contract to a new account (`newOwner`). Can only be called by the current owner."
      },
      "uri(uint256)": {
        "details": "See {IERC1155MetadataURI-uri}. This implementation returns a unique URI for each token, using a \"token/<id>\" format, for a wider compatibility compared to \"{id}\" replacement."
      }
    },
    "version": 1
  },
  "userdoc": {
    "kind": "user",
    "methods": {},
    "version": 1
  },
  "storageLayout": {
    "storage": [
      {
        "astId": 7,
        "contract": "contracts/Patch.sol:Patch",
        "label": "_owner",
        "offset": 0,
        "slot": "0",
        "type": "t_address"
      },
      {
        "astId": 2588,
        "contract": "contracts/Patch.sol:Patch",
        "label": "mintedTokens",
        "offset": 0,
        "slot": "1",
        "type": "t_uint256"
      },
      {
        "astId": 2591,
        "contract": "contracts/Patch.sol:Patch",
        "label": "_tokenOwners",
        "offset": 0,
        "slot": "2",
        "type": "t_array(t_address)dyn_storage"
      },
      {
        "astId": 2593,
        "contract": "contracts/Patch.sol:Patch",
        "label": "_proxyRegistryAddress",
        "offset": 0,
        "slot": "3",
        "type": "t_address"
      },
      {
        "astId": 2599,
        "contract": "contracts/Patch.sol:Patch",
        "label": "_operatorApprovals",
        "offset": 0,
        "slot": "4",
        "type": "t_mapping(t_address,t_mapping(t_address,t_bool))"
      },
      {
        "astId": 2601,
        "contract": "contracts/Patch.sol:Patch",
        "label": "_baseUrl",
        "offset": 0,
        "slot": "5",
        "type": "t_string_storage"
      },
      {
        "astId": 2604,
        "contract": "contracts/Patch.sol:Patch",
        "label": "_royaltyConfig",
        "offset": 0,
        "slot": "6",
        "type": "t_struct(RoyaltyConfig)2585_storage"
      },
      {
        "astId": 947,
        "contract": "contracts/Patch.sol:Patch",
        "label": "_tileContract",
        "offset": 0,
        "slot": "7",
        "type": "t_address"
      },
      {
        "astId": 952,
        "contract": "contracts/Patch.sol:Patch",
        "label": "_bounds",
        "offset": 0,
        "slot": "8",
        "type": "t_mapping(t_uint256,t_struct(Rectangle)941_storage)"
      },
      {
        "astId": 956,
        "contract": "contracts/Patch.sol:Patch",
        "label": "_tileToPatch",
        "offset": 0,
        "slot": "9",
        "type": "t_mapping(t_uint256,t_uint256)"
      }
    ],
    "types": {
      "t_address": {
        "encoding": "inplace",
        "label": "address",
        "numberOfBytes": "20"
      },
      "t_array(t_address)dyn_storage": {
        "base": "t_address",
        "encoding": "dynamic_array",
        "label": "address[]",
        "numberOfBytes": "32"
      },
      "t_bool": {
        "encoding": "inplace",
        "label": "bool",
        "numberOfBytes": "1"
      },
      "t_int256": {
        "encoding": "inplace",
        "label": "int256",
        "numberOfBytes": "32"
      },
      "t_mapping(t_address,t_bool)": {
        "encoding": "mapping",
        "key": "t_address",
        "label": "mapping(address => bool)",
        "numberOfBytes": "32",
        "value": "t_bool"
      },
      "t_mapping(t_address,t_mapping(t_address,t_bool))": {
        "encoding": "mapping",
        "key": "t_address",
        "label": "mapping(address => mapping(address => bool))",
        "numberOfBytes": "32",
        "value": "t_mapping(t_address,t_bool)"
      },
      "t_mapping(t_uint256,t_struct(Rectangle)941_storage)": {
        "encoding": "mapping",
        "key": "t_uint256",
        "label": "mapping(uint256 => struct Patch.Rectangle)",
        "numberOfBytes": "32",
        "value": "t_struct(Rectangle)941_storage"
      },
      "t_mapping(t_uint256,t_uint256)": {
        "encoding": "mapping",
        "key": "t_uint256",
        "label": "mapping(uint256 => uint256)",
        "numberOfBytes": "32",
        "value": "t_uint256"
      },
      "t_string_storage": {
        "encoding": "bytes",
        "label": "string",
        "numberOfBytes": "32"
      },
      "t_struct(Rectangle)941_storage": {
        "encoding": "inplace",
        "label": "struct Patch.Rectangle",
        "members": [
          {
            "astId": 934,
            "contract": "contracts/Patch.sol:Patch",
            "label": "x",
            "offset": 0,
            "slot": "0",
            "type": "t_int256"
          },
          {
            "astId": 936,
            "contract": "contracts/Patch.sol:Patch",
            "label": "y",
            "offset": 0,
            "slot": "1",
            "type": "t_int256"
          },
          {
            "astId": 938,
            "contract": "contracts/Patch.sol:Patch",
            "label": "width",
            "offset": 0,
            "slot": "2",
            "type": "t_uint256"
          },
          {
            "astId": 940,
            "contract": "contracts/Patch.sol:Patch",
            "label": "height",
            "offset": 0,
            "slot": "3",
            "type": "t_uint256"
          }
        ],
        "numberOfBytes": "128"
      },
      "t_struct(RoyaltyConfig)2585_storage": {
        "encoding": "inplace",
        "label": "struct ERC1155NFT.RoyaltyConfig",
        "members": [
          {
            "astId": 2582,
            "contract": "contracts/Patch.sol:Patch",
            "label": "target",
            "offset": 0,
            "slot": "0",
            "type": "t_address"
          },
          {
            "astId": 2584,
            "contract": "contracts/Patch.sol:Patch",
            "label": "points",
            "offset": 20,
            "slot": "0",
            "type": "t_uint8"
          }
        ],
        "numberOfBytes": "32"
      },
      "t_uint256": {
        "encoding": "inplace",
        "label": "uint256",
        "numberOfBytes": "32"
      },
      "t_uint8": {
        "encoding": "inplace",
        "label": "uint8",
        "numberOfBytes": "1"
      }
    }
  }
}