{
  "address": "0x156AE68082a0C6851599e78E4fBB2D4AdC362F53",
  "abi": [
    {
      "inputs": [
        {
          "internalType": "uint256",
          "name": "initialFee",
          "type": "uint256"
        },
        {
          "internalType": "uint256",
          "name": "initialMinFee",
          "type": "uint256"
        },
        {
          "internalType": "uint128",
          "name": "initialSize",
          "type": "uint128"
        },
        {
          "internalType": "uint256",
          "name": "initialDiscount",
          "type": "uint256"
        },
        {
          "internalType": "string",
          "name": "apiUrl",
          "type": "string"
        }
      ],
      "stateMutability": "nonpayable",
      "type": "constructor"
    },
    {
      "anonymous": false,
      "inputs": [
        {
          "indexed": true,
          "internalType": "address",
          "name": "account",
          "type": "address"
        },
        {
          "indexed": true,
          "internalType": "address",
          "name": "operator",
          "type": "address"
        },
        {
          "indexed": false,
          "internalType": "bool",
          "name": "approved",
          "type": "bool"
        }
      ],
      "name": "ApprovalForAll",
      "type": "event"
    },
    {
      "anonymous": false,
      "inputs": [
        {
          "indexed": false,
          "internalType": "uint256[]",
          "name": "tokenIds",
          "type": "uint256[]"
        },
        {
          "indexed": false,
          "internalType": "uint256",
          "name": "owed",
          "type": "uint256"
        },
        {
          "indexed": false,
          "internalType": "uint256",
          "name": "paid",
          "type": "uint256"
        }
      ],
      "name": "MintedPixels",
      "type": "event"
    },
    {
      "anonymous": false,
      "inputs": [
        {
          "indexed": true,
          "internalType": "address",
          "name": "previousOwner",
          "type": "address"
        },
        {
          "indexed": true,
          "internalType": "address",
          "name": "newOwner",
          "type": "address"
        }
      ],
      "name": "OwnershipTransferred",
      "type": "event"
    },
    {
      "anonymous": false,
      "inputs": [
        {
          "indexed": true,
          "internalType": "address",
          "name": "operator",
          "type": "address"
        },
        {
          "indexed": true,
          "internalType": "address",
          "name": "from",
          "type": "address"
        },
        {
          "indexed": true,
          "internalType": "address",
          "name": "to",
          "type": "address"
        },
        {
          "indexed": false,
          "internalType": "uint256[]",
          "name": "ids",
          "type": "uint256[]"
        },
        {
          "indexed": false,
          "internalType": "uint256[]",
          "name": "values",
          "type": "uint256[]"
        }
      ],
      "name": "TransferBatch",
      "type": "event"
    },
    {
      "anonymous": false,
      "inputs": [
        {
          "indexed": true,
          "internalType": "address",
          "name": "operator",
          "type": "address"
        },
        {
          "indexed": true,
          "internalType": "address",
          "name": "from",
          "type": "address"
        },
        {
          "indexed": true,
          "internalType": "address",
          "name": "to",
          "type": "address"
        },
        {
          "indexed": false,
          "internalType": "uint256",
          "name": "id",
          "type": "uint256"
        },
        {
          "indexed": false,
          "internalType": "uint256",
          "name": "value",
          "type": "uint256"
        }
      ],
      "name": "TransferSingle",
      "type": "event"
    },
    {
      "anonymous": false,
      "inputs": [
        {
          "indexed": false,
          "internalType": "string",
          "name": "value",
          "type": "string"
        },
        {
          "indexed": true,
          "internalType": "uint256",
          "name": "id",
          "type": "uint256"
        }
      ],
      "name": "URI",
      "type": "event"
    },
    {
      "inputs": [
        {
          "internalType": "address",
          "name": "account",
          "type": "address"
        },
        {
          "internalType": "uint256",
          "name": "id",
          "type": "uint256"
        }
      ],
      "name": "balanceOf",
      "outputs": [
        {
          "internalType": "uint256",
          "name": "",
          "type": "uint256"
        }
      ],
      "stateMutability": "view",
      "type": "function"
    },
    {
      "inputs": [
        {
          "internalType": "address[]",
          "name": "accounts",
          "type": "address[]"
        },
        {
          "internalType": "uint256[]",
          "name": "ids",
          "type": "uint256[]"
        }
      ],
      "name": "balanceOfBatch",
      "outputs": [
        {
          "internalType": "uint256[]",
          "name": "",
          "type": "uint256[]"
        }
      ],
      "stateMutability": "view",
      "type": "function"
    },
    {
      "inputs": [],
      "name": "baseUrl",
      "outputs": [
        {
          "internalType": "string",
          "name": "",
          "type": "string"
        }
      ],
      "stateMutability": "view",
      "type": "function"
    },
    {
      "inputs": [],
      "name": "contractURI",
      "outputs": [
        {
          "internalType": "string",
          "name": "",
          "type": "string"
        }
      ],
      "stateMutability": "view",
      "type": "function"
    },
    {
      "inputs": [
        {
          "internalType": "uint16",
          "name": "amount",
          "type": "uint16"
        }
      ],
      "name": "getMintCost",
      "outputs": [
        {
          "internalType": "uint256",
          "name": "",
          "type": "uint256"
        }
      ],
      "stateMutability": "view",
      "type": "function"
    },
    {
      "inputs": [
        {
          "internalType": "address",
          "name": "account",
          "type": "address"
        },
        {
          "internalType": "address",
          "name": "operator",
          "type": "address"
        }
      ],
      "name": "isApprovedForAll",
      "outputs": [
        {
          "internalType": "bool",
          "name": "",
          "type": "bool"
        }
      ],
      "stateMutability": "view",
      "type": "function"
    },
    {
      "inputs": [],
      "name": "maxPixels",
      "outputs": [
        {
          "internalType": "uint256",
          "name": "",
          "type": "uint256"
        }
      ],
      "stateMutability": "view",
      "type": "function"
    },
    {
      "inputs": [
        {
          "internalType": "uint16",
          "name": "amount",
          "type": "uint16"
        }
      ],
      "name": "mint",
      "outputs": [],
      "stateMutability": "payable",
      "type": "function"
    },
    {
      "inputs": [],
      "name": "owner",
      "outputs": [
        {
          "internalType": "address",
          "name": "",
          "type": "address"
        }
      ],
      "stateMutability": "view",
      "type": "function"
    },
    {
      "inputs": [],
      "name": "pixels",
      "outputs": [
        {
          "internalType": "uint256",
          "name": "",
          "type": "uint256"
        }
      ],
      "stateMutability": "view",
      "type": "function"
    },
    {
      "inputs": [],
      "name": "renounceOwnership",
      "outputs": [],
      "stateMutability": "nonpayable",
      "type": "function"
    },
    {
      "inputs": [
        {
          "internalType": "address",
          "name": "from",
          "type": "address"
        },
        {
          "internalType": "address",
          "name": "to",
          "type": "address"
        },
        {
          "internalType": "uint256[]",
          "name": "ids",
          "type": "uint256[]"
        },
        {
          "internalType": "uint256[]",
          "name": "amounts",
          "type": "uint256[]"
        },
        {
          "internalType": "bytes",
          "name": "data",
          "type": "bytes"
        }
      ],
      "name": "safeBatchTransferFrom",
      "outputs": [],
      "stateMutability": "nonpayable",
      "type": "function"
    },
    {
      "inputs": [
        {
          "internalType": "address",
          "name": "from",
          "type": "address"
        },
        {
          "internalType": "address",
          "name": "to",
          "type": "address"
        },
        {
          "internalType": "uint256",
          "name": "id",
          "type": "uint256"
        },
        {
          "internalType": "uint256",
          "name": "amount",
          "type": "uint256"
        },
        {
          "internalType": "bytes",
          "name": "data",
          "type": "bytes"
        }
      ],
      "name": "safeTransferFrom",
      "outputs": [],
      "stateMutability": "nonpayable",
      "type": "function"
    },
    {
      "inputs": [
        {
          "internalType": "address",
          "name": "operator",
          "type": "address"
        },
        {
          "internalType": "bool",
          "name": "approved",
          "type": "bool"
        }
      ],
      "name": "setApprovalForAll",
      "outputs": [],
      "stateMutability": "nonpayable",
      "type": "function"
    },
    {
      "inputs": [
        {
          "internalType": "uint256",
          "name": "newFee",
          "type": "uint256"
        },
        {
          "internalType": "uint256",
          "name": "newMinFee",
          "type": "uint256"
        },
        {
          "internalType": "uint256",
          "name": "newDiscount",
          "type": "uint256"
        }
      ],
      "name": "setFee",
      "outputs": [],
      "stateMutability": "nonpayable",
      "type": "function"
    },
    {
      "inputs": [
        {
          "internalType": "uint128",
          "name": "newSize",
          "type": "uint128"
        }
      ],
      "name": "setLimit",
      "outputs": [],
      "stateMutability": "nonpayable",
      "type": "function"
    },
    {
      "inputs": [
        {
          "internalType": "bytes4",
          "name": "interfaceId",
          "type": "bytes4"
        }
      ],
      "name": "supportsInterface",
      "outputs": [
        {
          "internalType": "bool",
          "name": "",
          "type": "bool"
        }
      ],
      "stateMutability": "view",
      "type": "function"
    },
    {
      "inputs": [
        {
          "internalType": "address",
          "name": "newOwner",
          "type": "address"
        }
      ],
      "name": "transferOwnership",
      "outputs": [],
      "stateMutability": "nonpayable",
      "type": "function"
    },
    {
      "inputs": [
        {
          "internalType": "uint256",
          "name": "id",
          "type": "uint256"
        }
      ],
      "name": "uri",
      "outputs": [
        {
          "internalType": "string",
          "name": "",
          "type": "string"
        }
      ],
      "stateMutability": "view",
      "type": "function"
    }
  ],
  "transactionHash": "0x07248e69208c04d6a19c45073e280cf4adc5345fafc911b96c1bb97d7dbf65f7",
  "args": [
    999999,
    9999,
    256,
    999,
    "https://pixels.watch/api/v1/pixels/"
  ],
  "numDeployments": 1,
  "solcInputHash": "8020749105e71d85603b1fd384052d59",
  "bytecode": "0x608060405260006005553480156200001657600080fd5b506040516200486e3803806200486e83398181016040528101906200003c91906200040b565b60405180606001604052806027815260200162004847602791396200006781620001c560201b60201c565b50620000886200007c620001e160201b60201c565b620001e960201b60201c565b848410620000cd576040517f08c379a0000000000000000000000000000000000000000000000000000000008152600401620000c49062000522565b60405180910390fd5b6000600284620000de91906200072e565b6fffffffffffffffffffffffffffffffff161462000133576040517f08c379a00000000000000000000000000000000000000000000000000000000081526004016200012a9062000500565b60405180910390fd5b633b9aca008562000145919062000605565b600781905550633b9aca00846200015d919062000605565b600881905550633b9aca008262000175919062000605565b6009819055508283620001899190620005b4565b6fffffffffffffffffffffffffffffffff166004819055508060069080519060200190620001b9929190620002af565b50505050505062000919565b8060029080519060200190620001dd929190620002af565b5050565b600033905090565b6000600360009054906101000a900473ffffffffffffffffffffffffffffffffffffffff16905081600360006101000a81548173ffffffffffffffffffffffffffffffffffffffff021916908373ffffffffffffffffffffffffffffffffffffffff1602179055508173ffffffffffffffffffffffffffffffffffffffff168173ffffffffffffffffffffffffffffffffffffffff167f8be0079c531659141344cd1fd0a4f28419497f9722a3daafe3b4186f6b6457e060405160405180910390a35050565b828054620002bd90620006c2565b90600052602060002090601f016020900481019282620002e157600085556200032d565b82601f10620002fc57805160ff19168380011785556200032d565b828001600101855582156200032d579182015b828111156200032c5782518255916020019190600101906200030f565b5b5090506200033c919062000340565b5090565b5b808211156200035b57600081600090555060010162000341565b5090565b60006200037662000370846200056d565b62000544565b90508281526020810184848401111562000395576200039462000827565b5b620003a28482856200068c565b509392505050565b600082601f830112620003c257620003c162000822565b5b8151620003d48482602086016200035f565b91505092915050565b600081519050620003ee81620008e5565b92915050565b6000815190506200040581620008ff565b92915050565b600080600080600060a086880312156200042a576200042962000831565b5b60006200043a88828901620003f4565b95505060206200044d88828901620003f4565b94505060406200046088828901620003dd565b93505060606200047388828901620003f4565b925050608086015167ffffffffffffffff8111156200049757620004966200082c565b5b620004a588828901620003aa565b9150509295509295909350565b6000620004c1602183620005a3565b9150620004ce8262000847565b604082019050919050565b6000620004e8602f83620005a3565b9150620004f58262000896565b604082019050919050565b600060208201905081810360008301526200051b81620004b2565b9050919050565b600060208201905081810360008301526200053d81620004d9565b9050919050565b60006200055062000563565b90506200055e8282620006f8565b919050565b6000604051905090565b600067ffffffffffffffff8211156200058b576200058a620007f3565b5b620005968262000836565b9050602081019050919050565b600082825260208201905092915050565b6000620005c18262000666565b9150620005ce8362000666565b9250816fffffffffffffffffffffffffffffffff0483118215151615620005fa57620005f962000766565b5b828202905092915050565b6000620006128262000682565b91506200061f8362000682565b9250817fffffffffffffffffffffffffffffffffffffffffffffffffffffffffffffffff04831182151516156200065b576200065a62000766565b5b828202905092915050565b60006fffffffffffffffffffffffffffffffff82169050919050565b6000819050919050565b60005b83811015620006ac5780820151818401526020810190506200068f565b83811115620006bc576000848401525b50505050565b60006002820490506001821680620006db57607f821691505b60208210811415620006f257620006f1620007c4565b5b50919050565b620007038262000836565b810181811067ffffffffffffffff82111715620007255762000724620007f3565b5b80604052505050565b60006200073b8262000666565b9150620007488362000666565b9250826200075b576200075a62000795565b5b828206905092915050565b7f4e487b7100000000000000000000000000000000000000000000000000000000600052601160045260246000fd5b7f4e487b7100000000000000000000000000000000000000000000000000000000600052601260045260246000fd5b7f4e487b7100000000000000000000000000000000000000000000000000000000600052602260045260246000fd5b7f4e487b7100000000000000000000000000000000000000000000000000000000600052604160045260246000fd5b600080fd5b600080fd5b600080fd5b600080fd5b6000601f19601f8301169050919050565b7f43616e206f6e6c79207365742073697a6520746f206576656e206e756d62657260008201527f7300000000000000000000000000000000000000000000000000000000000000602082015250565b7f4d696e696d756d206665652063616e6e6f74206265206772656174657220746860008201527f616e207374617274696e67206665650000000000000000000000000000000000602082015250565b620008f08162000666565b8114620008fc57600080fd5b50565b6200090a8162000682565b81146200091657600080fd5b50565b613f1e80620009296000396000f3fe6080604052600436106101135760003560e01c8063662ad59b116100a0578063e8a3d48511610064578063e8a3d485146103a1578063e985e9c5146103cc578063f242432a14610409578063f2fde38b14610432578063f3e4160c1461045b57610113565b8063662ad59b146102e2578063715018a61461030d5780637f733979146103245780638da5cb5b1461034d578063a22cb4651461037857610113565b806323cf0a22116100e757806323cf0a221461020c5780632eb2c2d6146102285780634e1273f4146102515780635b65b9ab1461028e5780635bcabf04146102b757610113565b8062fdd58e1461011857806301ffc9a7146101555780630e89341c14610192578063204e6dfa146101cf575b600080fd5b34801561012457600080fd5b5061013f600480360381019061013a9190612639565b610486565b60405161014c919061317d565b60405180910390f35b34801561016157600080fd5b5061017c600480360381019061017791906126f1565b61054f565b6040516101899190612ec0565b60405180910390f35b34801561019e57600080fd5b506101b960048036038101906101b491906127a5565b610631565b6040516101c69190612edb565b60405180910390f35b3480156101db57600080fd5b506101f660048036038101906101f19190612778565b6106a9565b604051610203919061317d565b60405180910390f35b61022660048036038101906102219190612778565b61079b565b005b34801561023457600080fd5b5061024f600480360381019061024a9190612493565b6109dc565b005b34801561025d57600080fd5b5061027860048036038101906102739190612679565b610a7d565b6040516102859190612e29565b60405180910390f35b34801561029a57600080fd5b506102b560048036038101906102b091906127d2565b610b96565b005b3480156102c357600080fd5b506102cc610c9b565b6040516102d99190612edb565b60405180910390f35b3480156102ee57600080fd5b506102f7610d29565b604051610304919061317d565b60405180910390f35b34801561031957600080fd5b50610322610d2f565b005b34801561033057600080fd5b5061034b6004803603810190610346919061274b565b610db7565b005b34801561035957600080fd5b50610362610f06565b60405161036f9190612d4c565b60405180910390f35b34801561038457600080fd5b5061039f600480360381019061039a91906125f9565b610f30565b005b3480156103ad57600080fd5b506103b6610f46565b6040516103c39190612edb565b60405180910390f35b3480156103d857600080fd5b506103f360048036038101906103ee9190612453565b610f6e565b6040516104009190612ec0565b60405180910390f35b34801561041557600080fd5b50610430600480360381019061042b9190612562565b611002565b005b34801561043e57600080fd5b5061045960048036038101906104549190612426565b6110a3565b005b34801561046757600080fd5b5061047061119b565b60405161047d919061317d565b60405180910390f35b60008073ffffffffffffffffffffffffffffffffffffffff168373ffffffffffffffffffffffffffffffffffffffff1614156104f7576040517f08c379a00000000000000000000000000000000000000000000000000000000081526004016104ee90612f3d565b60405180910390fd5b60008083815260200190815260200160002060008473ffffffffffffffffffffffffffffffffffffffff1673ffffffffffffffffffffffffffffffffffffffff16815260200190815260200160002054905092915050565b60007fd9b67a26000000000000000000000000000000000000000000000000000000007bffffffffffffffffffffffffffffffffffffffffffffffffffffffff1916827bffffffffffffffffffffffffffffffffffffffffffffffffffffffff1916148061061a57507f0e89341c000000000000000000000000000000000000000000000000000000007bffffffffffffffffffffffffffffffffffffffffffffffffffffffff1916827bffffffffffffffffffffffffffffffffffffffffffffffffffffffff1916145b8061062a5750610629826111a1565b5b9050919050565b60606005548210610677576040517f08c379a000000000000000000000000000000000000000000000000000000000815260040161066e90612fbd565b60405180910390fd5b60066106828361120b565b604051602001610693929190612cfb565b6040516020818303038152906040529050919050565b60006004548261ffff166005546106c09190613300565b10610700576040517f08c379a00000000000000000000000000000000000000000000000000000000081526004016106f7906130dd565b60405180910390fd5b600061072c8361ffff1660095460085460075461071d919061342b565b6107279190613356565b61136c565b9050600854818461ffff16610741919061342b565b61074b91906133d1565b600260095460018461075d919061342b565b61076791906133d1565b6107719190613356565b60075461077e919061342b565b8261078991906133d1565b6107939190613300565b915050919050565b6004548161ffff166005546107b09190613300565b106107f0576040517f08c379a00000000000000000000000000000000000000000000000000000000081526004016107e79061309d565b60405180910390fd5b60006107fb826106a9565b905080341015610840576040517f08c379a000000000000000000000000000000000000000000000000000000000815260040161083790612f9d565b60405180910390fd5b60008261ffff1667ffffffffffffffff8111156108605761085f613734565b5b60405190808252806020026020018201604052801561088e5781602001602082028036833780820191505090505b50905060008361ffff1667ffffffffffffffff8111156108b1576108b0613734565b5b6040519080825280602002602001820160405280156108df5781602001602082028036833780820191505090505b50905060005b8461ffff168161ffff161015610962578061ffff166005546109079190613300565b838261ffff168151811061091e5761091d613705565b5b6020026020010181815250506001828261ffff168151811061094357610942613705565b5b602002602001018181525050808061095a906135a2565b9150506108e5565b5061097e33838360405180602001604052806000815250611385565b8361ffff16600560008282546109949190613300565b925050819055507fd6b57320ab15ddd95b8d4d4b698b80337cd15aec82315f019d6fefecebc497db8284346040516109ce93929190612e82565b60405180910390a150505050565b6109e46115a3565b73ffffffffffffffffffffffffffffffffffffffff168573ffffffffffffffffffffffffffffffffffffffff161480610a2a5750610a2985610a246115a3565b610f6e565b5b610a69576040517f08c379a0000000000000000000000000000000000000000000000000000000008152600401610a609061301d565b60405180910390fd5b610a7685858585856115ab565b5050505050565b60608151835114610ac3576040517f08c379a0000000000000000000000000000000000000000000000000000000008152600401610aba9061311d565b60405180910390fd5b6000835167ffffffffffffffff811115610ae057610adf613734565b5b604051908082528060200260200182016040528015610b0e5781602001602082028036833780820191505090505b50905060005b8451811015610b8b57610b5b858281518110610b3357610b32613705565b5b6020026020010151858381518110610b4e57610b4d613705565b5b6020026020010151610486565b828281518110610b6e57610b6d613705565b5b60200260200101818152505080610b84906135cd565b9050610b14565b508091505092915050565b610b9e6115a3565b73ffffffffffffffffffffffffffffffffffffffff16610bbc610f06565b73ffffffffffffffffffffffffffffffffffffffff1614610c12576040517f08c379a0000000000000000000000000000000000000000000000000000000008152600401610c099061307d565b60405180910390fd5b828210610c54576040517f08c379a0000000000000000000000000000000000000000000000000000000008152600401610c4b906130bd565b60405180910390fd5b633b9aca0083610c6491906133d1565b600781905550633b9aca0082610c7a91906133d1565b600881905550633b9aca0081610c9091906133d1565b600981905550505050565b60068054610ca89061353f565b80601f0160208091040260200160405190810160405280929190818152602001828054610cd49061353f565b8015610d215780601f10610cf657610100808354040283529160200191610d21565b820191906000526020600020905b815481529060010190602001808311610d0457829003601f168201915b505050505081565b60055481565b610d376115a3565b73ffffffffffffffffffffffffffffffffffffffff16610d55610f06565b73ffffffffffffffffffffffffffffffffffffffff1614610dab576040517f08c379a0000000000000000000000000000000000000000000000000000000008152600401610da29061307d565b60405180910390fd5b610db560006118bf565b565b610dbf6115a3565b73ffffffffffffffffffffffffffffffffffffffff16610ddd610f06565b73ffffffffffffffffffffffffffffffffffffffff1614610e33576040517f08c379a0000000000000000000000000000000000000000000000000000000008152600401610e2a9061307d565b60405180910390fd5b6000600282610e429190613616565b6fffffffffffffffffffffffffffffffff1614610e94576040517f08c379a0000000000000000000000000000000000000000000000000000000008152600401610e8b90612fdd565b60405180910390fd5b60008182610ea29190613387565b6fffffffffffffffffffffffffffffffff169050600454811015610efb576040517f08c379a0000000000000000000000000000000000000000000000000000000008152600401610ef29061305d565b60405180910390fd5b806004819055505050565b6000600360009054906101000a900473ffffffffffffffffffffffffffffffffffffffff16905090565b610f42610f3b6115a3565b8383611985565b5050565b60606006604051602001610f5a9190612d2a565b604051602081830303815290604052905090565b6000600160008473ffffffffffffffffffffffffffffffffffffffff1673ffffffffffffffffffffffffffffffffffffffff16815260200190815260200160002060008373ffffffffffffffffffffffffffffffffffffffff1673ffffffffffffffffffffffffffffffffffffffff16815260200190815260200160002060009054906101000a900460ff16905092915050565b61100a6115a3565b73ffffffffffffffffffffffffffffffffffffffff168573ffffffffffffffffffffffffffffffffffffffff161480611050575061104f8561104a6115a3565b610f6e565b5b61108f576040517f08c379a000000000000000000000000000000000000000000000000000000000815260040161108690612f7d565b60405180910390fd5b61109c8585858585611af2565b5050505050565b6110ab6115a3565b73ffffffffffffffffffffffffffffffffffffffff166110c9610f06565b73ffffffffffffffffffffffffffffffffffffffff161461111f576040517f08c379a00000000000000000000000000000000000000000000000000000000081526004016111169061307d565b60405180910390fd5b600073ffffffffffffffffffffffffffffffffffffffff168173ffffffffffffffffffffffffffffffffffffffff16141561118f576040517f08c379a000000000000000000000000000000000000000000000000000000000815260040161118690612f5d565b60405180910390fd5b611198816118bf565b50565b60045481565b60007f01ffc9a7000000000000000000000000000000000000000000000000000000007bffffffffffffffffffffffffffffffffffffffffffffffffffffffff1916827bffffffffffffffffffffffffffffffffffffffffffffffffffffffff1916149050919050565b60606000821415611253576040518060400160405280600181526020017f30000000000000000000000000000000000000000000000000000000000000008152509050611367565b600082905060005b6000821461128557808061126e906135cd565b915050600a8261127e9190613356565b915061125b565b60008167ffffffffffffffff8111156112a1576112a0613734565b5b6040519080825280601f01601f1916602001820160405280156112d35781602001600182028036833780820191505090505b5090505b60008514611360576001826112ec919061342b565b9150600a856112fb9190613647565b60306113079190613300565b60f81b81838151811061131d5761131c613705565b5b60200101907effffffffffffffffffffffffffffffffffffffffffffffffffffffffffffff1916908160001a905350600a856113599190613356565b94506112d7565b8093505050505b919050565b600081831061137b578161137d565b825b905092915050565b600073ffffffffffffffffffffffffffffffffffffffff168473ffffffffffffffffffffffffffffffffffffffff1614156113f5576040517f08c379a00000000000000000000000000000000000000000000000000000000081526004016113ec9061315d565b60405180910390fd5b8151835114611439576040517f08c379a00000000000000000000000000000000000000000000000000000000081526004016114309061313d565b60405180910390fd5b60006114436115a3565b905061145481600087878787611d74565b60005b845181101561150d5783818151811061147357611472613705565b5b602002602001015160008087848151811061149157611490613705565b5b6020026020010151815260200190815260200160002060008873ffffffffffffffffffffffffffffffffffffffff1673ffffffffffffffffffffffffffffffffffffffff16815260200190815260200160002060008282546114f39190613300565b925050819055508080611505906135cd565b915050611457565b508473ffffffffffffffffffffffffffffffffffffffff16600073ffffffffffffffffffffffffffffffffffffffff168273ffffffffffffffffffffffffffffffffffffffff167f4a39dc06d4c0dbc64b70af90fd698a233a518aa5d07e595d983b8c0526c8f7fb8787604051611585929190612e4b565b60405180910390a461159c81600087878787611d7c565b5050505050565b600033905090565b81518351146115ef576040517f08c379a00000000000000000000000000000000000000000000000000000000081526004016115e69061313d565b60405180910390fd5b600073ffffffffffffffffffffffffffffffffffffffff168473ffffffffffffffffffffffffffffffffffffffff16141561165f576040517f08c379a000000000000000000000000000000000000000000000000000000000815260040161165690612ffd565b60405180910390fd5b60006116696115a3565b9050611679818787878787611d74565b60005b845181101561182a57600085828151811061169a57611699613705565b5b6020026020010151905060008583815181106116b9576116b8613705565b5b60200260200101519050600080600084815260200190815260200160002060008b73ffffffffffffffffffffffffffffffffffffffff1673ffffffffffffffffffffffffffffffffffffffff1681526020019081526020016000205490508181101561175a576040517f08c379a00000000000000000000000000000000000000000000000000000000081526004016117519061303d565b60405180910390fd5b81810360008085815260200190815260200160002060008c73ffffffffffffffffffffffffffffffffffffffff1673ffffffffffffffffffffffffffffffffffffffff168152602001908152602001600020819055508160008085815260200190815260200160002060008b73ffffffffffffffffffffffffffffffffffffffff1673ffffffffffffffffffffffffffffffffffffffff168152602001908152602001600020600082825461180f9190613300565b9250508190555050505080611823906135cd565b905061167c565b508473ffffffffffffffffffffffffffffffffffffffff168673ffffffffffffffffffffffffffffffffffffffff168273ffffffffffffffffffffffffffffffffffffffff167f4a39dc06d4c0dbc64b70af90fd698a233a518aa5d07e595d983b8c0526c8f7fb87876040516118a1929190612e4b565b60405180910390a46118b7818787878787611d7c565b505050505050565b6000600360009054906101000a900473ffffffffffffffffffffffffffffffffffffffff16905081600360006101000a81548173ffffffffffffffffffffffffffffffffffffffff021916908373ffffffffffffffffffffffffffffffffffffffff1602179055508173ffffffffffffffffffffffffffffffffffffffff168173ffffffffffffffffffffffffffffffffffffffff167f8be0079c531659141344cd1fd0a4f28419497f9722a3daafe3b4186f6b6457e060405160405180910390a35050565b8173ffffffffffffffffffffffffffffffffffffffff168373ffffffffffffffffffffffffffffffffffffffff1614156119f4576040517f08c379a00000000000000000000000000000000000000000000000000000000081526004016119eb906130fd565b60405180910390fd5b80600160008573ffffffffffffffffffffffffffffffffffffffff1673ffffffffffffffffffffffffffffffffffffffff16815260200190815260200160002060008473ffffffffffffffffffffffffffffffffffffffff1673ffffffffffffffffffffffffffffffffffffffff16815260200190815260200160002060006101000a81548160ff0219169083151502179055508173ffffffffffffffffffffffffffffffffffffffff168373ffffffffffffffffffffffffffffffffffffffff167f17307eab39ab6107e8899845ad3d59bd9653f200f220920489ca2b5937696c3183604051611ae59190612ec0565b60405180910390a3505050565b600073ffffffffffffffffffffffffffffffffffffffff168473ffffffffffffffffffffffffffffffffffffffff161415611b62576040517f08c379a0000000000000000000000000000000000000000000000000000000008152600401611b5990612ffd565b60405180910390fd5b6000611b6c6115a3565b9050611b8c818787611b7d88611f63565b611b8688611f63565b87611d74565b600080600086815260200190815260200160002060008873ffffffffffffffffffffffffffffffffffffffff1673ffffffffffffffffffffffffffffffffffffffff16815260200190815260200160002054905083811015611c23576040517f08c379a0000000000000000000000000000000000000000000000000000000008152600401611c1a9061303d565b60405180910390fd5b83810360008087815260200190815260200160002060008973ffffffffffffffffffffffffffffffffffffffff1673ffffffffffffffffffffffffffffffffffffffff168152602001908152602001600020819055508360008087815260200190815260200160002060008873ffffffffffffffffffffffffffffffffffffffff1673ffffffffffffffffffffffffffffffffffffffff1681526020019081526020016000206000828254611cd89190613300565b925050819055508573ffffffffffffffffffffffffffffffffffffffff168773ffffffffffffffffffffffffffffffffffffffff168373ffffffffffffffffffffffffffffffffffffffff167fc3d58168c5ae7397731d063d5bbf3d657854427343f4c083240f7aacaa2d0f628888604051611d55929190613198565b60405180910390a4611d6b828888888888611fdd565b50505050505050565b505050505050565b611d9b8473ffffffffffffffffffffffffffffffffffffffff166121c4565b15611f5b578373ffffffffffffffffffffffffffffffffffffffff1663bc197c8187878686866040518663ffffffff1660e01b8152600401611de1959493929190612d67565b602060405180830381600087803b158015611dfb57600080fd5b505af1925050508015611e2c57506040513d601f19601f82011682018060405250810190611e29919061271e565b60015b611ed257611e38613763565b806308c379a01415611e955750611e4d613dc8565b80611e585750611e97565b806040517f08c379a0000000000000000000000000000000000000000000000000000000008152600401611e8c9190612edb565b60405180910390fd5b505b6040517f08c379a0000000000000000000000000000000000000000000000000000000008152600401611ec990612efd565b60405180910390fd5b63bc197c8160e01b7bffffffffffffffffffffffffffffffffffffffffffffffffffffffff1916817bffffffffffffffffffffffffffffffffffffffffffffffffffffffff191614611f59576040517f08c379a0000000000000000000000000000000000000000000000000000000008152600401611f5090612f1d565b60405180910390fd5b505b505050505050565b60606000600167ffffffffffffffff811115611f8257611f81613734565b5b604051908082528060200260200182016040528015611fb05781602001602082028036833780820191505090505b5090508281600081518110611fc857611fc7613705565b5b60200260200101818152505080915050919050565b611ffc8473ffffffffffffffffffffffffffffffffffffffff166121c4565b156121bc578373ffffffffffffffffffffffffffffffffffffffff1663f23a6e6187878686866040518663ffffffff1660e01b8152600401612042959493929190612dcf565b602060405180830381600087803b15801561205c57600080fd5b505af192505050801561208d57506040513d601f19601f8201168201806040525081019061208a919061271e565b60015b61213357612099613763565b806308c379a014156120f657506120ae613dc8565b806120b957506120f8565b806040517f08c379a00000000000000000000000000000000000000000000000000000000081526004016120ed9190612edb565b60405180910390fd5b505b6040517f08c379a000000000000000000000000000000000000000000000000000000000815260040161212a90612efd565b60405180910390fd5b63f23a6e6160e01b7bffffffffffffffffffffffffffffffffffffffffffffffffffffffff1916817bffffffffffffffffffffffffffffffffffffffffffffffffffffffff1916146121ba576040517f08c379a00000000000000000000000000000000000000000000000000000000081526004016121b190612f1d565b60405180910390fd5b505b505050505050565b6000808273ffffffffffffffffffffffffffffffffffffffff163b119050919050565b60006121fa6121f5846131e6565b6131c1565b9050808382526020820190508285602086028201111561221d5761221c61378a565b5b60005b8581101561224d57816122338882612309565b845260208401935060208301925050600181019050612220565b5050509392505050565b600061226a61226584613212565b6131c1565b9050808382526020820190508285602086028201111561228d5761228c61378a565b5b60005b858110156122bd57816122a38882612411565b845260208401935060208301925050600181019050612290565b5050509392505050565b60006122da6122d58461323e565b6131c1565b9050828152602081018484840111156122f6576122f561378f565b5b6123018482856134fd565b509392505050565b60008135905061231881613e5e565b92915050565b600082601f83011261233357612332613785565b5b81356123438482602086016121e7565b91505092915050565b600082601f83011261236157612360613785565b5b8135612371848260208601612257565b91505092915050565b60008135905061238981613e75565b92915050565b60008135905061239e81613e8c565b92915050565b6000815190506123b381613e8c565b92915050565b600082601f8301126123ce576123cd613785565b5b81356123de8482602086016122c7565b91505092915050565b6000813590506123f681613ea3565b92915050565b60008135905061240b81613eba565b92915050565b60008135905061242081613ed1565b92915050565b60006020828403121561243c5761243b613799565b5b600061244a84828501612309565b91505092915050565b6000806040838503121561246a57612469613799565b5b600061247885828601612309565b925050602061248985828601612309565b9150509250929050565b600080600080600060a086880312156124af576124ae613799565b5b60006124bd88828901612309565b95505060206124ce88828901612309565b945050604086013567ffffffffffffffff8111156124ef576124ee613794565b5b6124fb8882890161234c565b935050606086013567ffffffffffffffff81111561251c5761251b613794565b5b6125288882890161234c565b925050608086013567ffffffffffffffff81111561254957612548613794565b5b612555888289016123b9565b9150509295509295909350565b600080600080600060a0868803121561257e5761257d613799565b5b600061258c88828901612309565b955050602061259d88828901612309565b94505060406125ae88828901612411565b93505060606125bf88828901612411565b925050608086013567ffffffffffffffff8111156125e0576125df613794565b5b6125ec888289016123b9565b9150509295509295909350565b600080604083850312156126105761260f613799565b5b600061261e85828601612309565b925050602061262f8582860161237a565b9150509250929050565b600080604083850312156126505761264f613799565b5b600061265e85828601612309565b925050602061266f85828601612411565b9150509250929050565b600080604083850312156126905761268f613799565b5b600083013567ffffffffffffffff8111156126ae576126ad613794565b5b6126ba8582860161231e565b925050602083013567ffffffffffffffff8111156126db576126da613794565b5b6126e78582860161234c565b9150509250929050565b60006020828403121561270757612706613799565b5b60006127158482850161238f565b91505092915050565b60006020828403121561273457612733613799565b5b6000612742848285016123a4565b91505092915050565b60006020828403121561276157612760613799565b5b600061276f848285016123e7565b91505092915050565b60006020828403121561278e5761278d613799565b5b600061279c848285016123fc565b91505092915050565b6000602082840312156127bb576127ba613799565b5b60006127c984828501612411565b91505092915050565b6000806000606084860312156127eb576127ea613799565b5b60006127f986828701612411565b935050602061280a86828701612411565b925050604061281b86828701612411565b9150509250925092565b60006128318383612cdd565b60208301905092915050565b6128468161345f565b82525050565b600061285782613294565b61286181856132c2565b935061286c8361326f565b8060005b8381101561289d5781516128848882612825565b975061288f836132b5565b925050600181019050612870565b5085935050505092915050565b6128b381613471565b82525050565b60006128c48261329f565b6128ce81856132d3565b93506128de81856020860161350c565b6128e78161379e565b840191505092915050565b60006128fd826132aa565b61290781856132e4565b935061291781856020860161350c565b6129208161379e565b840191505092915050565b6000612936826132aa565b61294081856132f5565b935061295081856020860161350c565b80840191505092915050565b600081546129698161353f565b61297381866132f5565b9450600182166000811461298e576001811461299f576129d2565b60ff198316865281860193506129d2565b6129a88561327f565b60005b838110156129ca578154818901526001820191506020810190506129ab565b838801955050505b50505092915050565b60006129e86034836132e4565b91506129f3826137bc565b604082019050919050565b6000612a0b6028836132e4565b9150612a168261380b565b604082019050919050565b6000612a2e602b836132e4565b9150612a398261385a565b604082019050919050565b6000612a516026836132e4565b9150612a5c826138a9565b604082019050919050565b6000612a746006836132f5565b9150612a7f826138f8565b600682019050919050565b6000612a976029836132e4565b9150612aa282613921565b604082019050919050565b6000612aba602f836132e4565b9150612ac582613970565b604082019050919050565b6000612add6014836132e4565b9150612ae8826139bf565b602082019050919050565b6000612b006021836132e4565b9150612b0b826139e8565b604082019050919050565b6000612b236025836132e4565b9150612b2e82613a37565b604082019050919050565b6000612b466032836132e4565b9150612b5182613a86565b604082019050919050565b6000612b696008836132f5565b9150612b7482613ad5565b600882019050919050565b6000612b8c602a836132e4565b9150612b9782613afe565b604082019050919050565b6000612baf601e836132e4565b9150612bba82613b4d565b602082019050919050565b6000612bd26020836132e4565b9150612bdd82613b76565b602082019050919050565b6000612bf56026836132e4565b9150612c0082613b9f565b604082019050919050565b6000612c18602f836132e4565b9150612c2382613bee565b604082019050919050565b6000612c3b602e836132e4565b9150612c4682613c3d565b604082019050919050565b6000612c5e6029836132e4565b9150612c6982613c8c565b604082019050919050565b6000612c816029836132e4565b9150612c8c82613cdb565b604082019050919050565b6000612ca46028836132e4565b9150612caf82613d2a565b604082019050919050565b6000612cc76021836132e4565b9150612cd282613d79565b604082019050919050565b612ce6816134f3565b82525050565b612cf5816134f3565b82525050565b6000612d07828561295c565b9150612d1282612a67565b9150612d1e828461292b565b91508190509392505050565b6000612d36828461295c565b9150612d4182612b5c565b915081905092915050565b6000602082019050612d61600083018461283d565b92915050565b600060a082019050612d7c600083018861283d565b612d89602083018761283d565b8181036040830152612d9b818661284c565b90508181036060830152612daf818561284c565b90508181036080830152612dc381846128b9565b90509695505050505050565b600060a082019050612de4600083018861283d565b612df1602083018761283d565b612dfe6040830186612cec565b612e0b6060830185612cec565b8181036080830152612e1d81846128b9565b90509695505050505050565b60006020820190508181036000830152612e43818461284c565b905092915050565b60006040820190508181036000830152612e65818561284c565b90508181036020830152612e79818461284c565b90509392505050565b60006060820190508181036000830152612e9c818661284c565b9050612eab6020830185612cec565b612eb86040830184612cec565b949350505050565b6000602082019050612ed560008301846128aa565b92915050565b60006020820190508181036000830152612ef581846128f2565b905092915050565b60006020820190508181036000830152612f16816129db565b9050919050565b60006020820190508181036000830152612f36816129fe565b9050919050565b60006020820190508181036000830152612f5681612a21565b9050919050565b60006020820190508181036000830152612f7681612a44565b9050919050565b60006020820190508181036000830152612f9681612a8a565b9050919050565b60006020820190508181036000830152612fb681612aad565b9050919050565b60006020820190508181036000830152612fd681612ad0565b9050919050565b60006020820190508181036000830152612ff681612af3565b9050919050565b6000602082019050818103600083015261301681612b16565b9050919050565b6000602082019050818103600083015261303681612b39565b9050919050565b6000602082019050818103600083015261305681612b7f565b9050919050565b6000602082019050818103600083015261307681612ba2565b9050919050565b6000602082019050818103600083015261309681612bc5565b9050919050565b600060208201905081810360008301526130b681612be8565b9050919050565b600060208201905081810360008301526130d681612c0b565b9050919050565b600060208201905081810360008301526130f681612c2e565b9050919050565b6000602082019050818103600083015261311681612c51565b9050919050565b6000602082019050818103600083015261313681612c74565b9050919050565b6000602082019050818103600083015261315681612c97565b9050919050565b6000602082019050818103600083015261317681612cba565b9050919050565b60006020820190506131926000830184612cec565b92915050565b60006040820190506131ad6000830185612cec565b6131ba6020830184612cec565b9392505050565b60006131cb6131dc565b90506131d78282613571565b919050565b6000604051905090565b600067ffffffffffffffff82111561320157613200613734565b5b602082029050602081019050919050565b600067ffffffffffffffff82111561322d5761322c613734565b5b602082029050602081019050919050565b600067ffffffffffffffff82111561325957613258613734565b5b6132628261379e565b9050602081019050919050565b6000819050602082019050919050565b60008190508160005260206000209050919050565b600081519050919050565b600081519050919050565b600081519050919050565b6000602082019050919050565b600082825260208201905092915050565b600082825260208201905092915050565b600082825260208201905092915050565b600081905092915050565b600061330b826134f3565b9150613316836134f3565b9250827fffffffffffffffffffffffffffffffffffffffffffffffffffffffffffffffff0382111561334b5761334a613678565b5b828201905092915050565b6000613361826134f3565b915061336c836134f3565b92508261337c5761337b6136a7565b5b828204905092915050565b6000613392826134a9565b915061339d836134a9565b9250816fffffffffffffffffffffffffffffffff04831182151516156133c6576133c5613678565b5b828202905092915050565b60006133dc826134f3565b91506133e7836134f3565b9250817fffffffffffffffffffffffffffffffffffffffffffffffffffffffffffffffff04831182151516156134205761341f613678565b5b828202905092915050565b6000613436826134f3565b9150613441836134f3565b92508282101561345457613453613678565b5b828203905092915050565b600061346a826134d3565b9050919050565b60008115159050919050565b60007fffffffff0000000000000000000000000000000000000000000000000000000082169050919050565b60006fffffffffffffffffffffffffffffffff82169050919050565b600061ffff82169050919050565b600073ffffffffffffffffffffffffffffffffffffffff82169050919050565b6000819050919050565b82818337600083830152505050565b60005b8381101561352a57808201518184015260208101905061350f565b83811115613539576000848401525b50505050565b6000600282049050600182168061355757607f821691505b6020821081141561356b5761356a6136d6565b5b50919050565b61357a8261379e565b810181811067ffffffffffffffff8211171561359957613598613734565b5b80604052505050565b60006135ad826134c5565b915061ffff8214156135c2576135c1613678565b5b600182019050919050565b60006135d8826134f3565b91507fffffffffffffffffffffffffffffffffffffffffffffffffffffffffffffffff82141561360b5761360a613678565b5b600182019050919050565b6000613621826134a9565b915061362c836134a9565b92508261363c5761363b6136a7565b5b828206905092915050565b6000613652826134f3565b915061365d836134f3565b92508261366d5761366c6136a7565b5b828206905092915050565b7f4e487b7100000000000000000000000000000000000000000000000000000000600052601160045260246000fd5b7f4e487b7100000000000000000000000000000000000000000000000000000000600052601260045260246000fd5b7f4e487b7100000000000000000000000000000000000000000000000000000000600052602260045260246000fd5b7f4e487b7100000000000000000000000000000000000000000000000000000000600052603260045260246000fd5b7f4e487b7100000000000000000000000000000000000000000000000000000000600052604160045260246000fd5b600060033d11156137825760046000803e61377f6000516137af565b90505b90565b600080fd5b600080fd5b600080fd5b600080fd5b600080fd5b6000601f19601f8301169050919050565b60008160e01c9050919050565b7f455243313135353a207472616e7366657220746f206e6f6e204552433131353560008201527f526563656976657220696d706c656d656e746572000000000000000000000000602082015250565b7f455243313135353a204552433131353552656365697665722072656a6563746560008201527f6420746f6b656e73000000000000000000000000000000000000000000000000602082015250565b7f455243313135353a2062616c616e636520717565727920666f7220746865207a60008201527f65726f2061646472657373000000000000000000000000000000000000000000602082015250565b7f4f776e61626c653a206e6577206f776e657220697320746865207a65726f206160008201527f6464726573730000000000000000000000000000000000000000000000000000602082015250565b7f706978656c2f0000000000000000000000000000000000000000000000000000600082015250565b7f455243313135353a2063616c6c6572206973206e6f74206f776e6572206e6f7260008201527f20617070726f7665640000000000000000000000000000000000000000000000602082015250565b7f496e73756666696369656e742076616c756520617474616368656420666f722060008201527f6d696e74696e6720726571756573740000000000000000000000000000000000602082015250565b7f546f6b656e20646f6573206e6f74206578697374000000000000000000000000600082015250565b7f43616e206f6e6c79207365742073697a6520746f206576656e206e756d62657260008201527f7300000000000000000000000000000000000000000000000000000000000000602082015250565b7f455243313135353a207472616e7366657220746f20746865207a65726f20616460008201527f6472657373000000000000000000000000000000000000000000000000000000602082015250565b7f455243313135353a207472616e736665722063616c6c6572206973206e6f742060008201527f6f776e6572206e6f7220617070726f7665640000000000000000000000000000602082015250565b7f636f6e7472616374000000000000000000000000000000000000000000000000600082015250565b7f455243313135353a20696e73756666696369656e742062616c616e636520666f60008201527f72207472616e7366657200000000000000000000000000000000000000000000602082015250565b7f43616e6e6f7420726564756365206c696d6974206f6620706978656c732e0000600082015250565b7f4f776e61626c653a2063616c6c6572206973206e6f7420746865206f776e6572600082015250565b7f43616e6e6f74206d696e74206d6f726520706978656c73207468616e2061766160008201527f696c61626c650000000000000000000000000000000000000000000000000000602082015250565b7f4d696e696d756d206665652063616e6e6f74206265206772656174657220746860008201527f616e207374617274696e67206665650000000000000000000000000000000000602082015250565b7f507572636861736520776f756c64206d696e74206d6f726520706978656c732060008201527f7468616e20617661696c61626c65000000000000000000000000000000000000602082015250565b7f455243313135353a2073657474696e6720617070726f76616c2073746174757360008201527f20666f722073656c660000000000000000000000000000000000000000000000602082015250565b7f455243313135353a206163636f756e747320616e6420696473206c656e67746860008201527f206d69736d617463680000000000000000000000000000000000000000000000602082015250565b7f455243313135353a2069647320616e6420616d6f756e7473206c656e6774682060008201527f6d69736d61746368000000000000000000000000000000000000000000000000602082015250565b7f455243313135353a206d696e7420746f20746865207a65726f2061646472657360008201527f7300000000000000000000000000000000000000000000000000000000000000602082015250565b600060443d1015613dd857613e5b565b613de06131dc565b60043d036004823e80513d602482011167ffffffffffffffff82111715613e08575050613e5b565b808201805167ffffffffffffffff811115613e265750505050613e5b565b80602083010160043d038501811115613e43575050505050613e5b565b613e5282602001850186613571565b82955050505050505b90565b613e678161345f565b8114613e7257600080fd5b50565b613e7e81613471565b8114613e8957600080fd5b50565b613e958161347d565b8114613ea057600080fd5b50565b613eac816134a9565b8114613eb757600080fd5b50565b613ec3816134c5565b8114613ece57600080fd5b50565b613eda816134f3565b8114613ee557600080fd5b5056fea2646970667358221220c663ad7e8defc1775f3999b7b3a5877c6c18178d83462fc2f0a1568351679f8864736f6c6343000807003368747470733a2f2f67616d652e6578616d706c652f6170692f6974656d2f7b69647d2e6a736f6e",
  "devdoc": {
    "kind": "dev",
    "methods": {
      "balanceOf(address,uint256)": {
        "details": "See {IERC1155-balanceOf}. Requirements: - `account` cannot be the zero address."
      },
      "balanceOfBatch(address[],uint256[])": {
        "details": "See {IERC1155-balanceOfBatch}. Requirements: - `accounts` and `ids` must have the same length."
      },
      "isApprovedForAll(address,address)": {
        "details": "See {IERC1155-isApprovedForAll}."
      },
      "owner()": {
        "details": "Returns the address of the current owner."
      },
      "renounceOwnership()": {
        "details": "Leaves the contract without owner. It will not be possible to call `onlyOwner` functions anymore. Can only be called by the current owner. NOTE: Renouncing ownership will leave the contract without an owner, thereby removing any functionality that is only available to the owner."
      },
      "safeBatchTransferFrom(address,address,uint256[],uint256[],bytes)": {
        "details": "See {IERC1155-safeBatchTransferFrom}."
      },
      "safeTransferFrom(address,address,uint256,uint256,bytes)": {
        "details": "See {IERC1155-safeTransferFrom}."
      },
      "setApprovalForAll(address,bool)": {
        "details": "See {IERC1155-setApprovalForAll}."
      },
      "supportsInterface(bytes4)": {
        "details": "See {IERC165-supportsInterface}."
      },
      "transferOwnership(address)": {
        "details": "Transfers ownership of the contract to a new account (`newOwner`). Can only be called by the current owner."
      }
    },
    "version": 1
  },
  "userdoc": {
    "kind": "user",
    "methods": {},
    "version": 1
  },
  "storageLayout": {
    "storage": [
      {
        "astId": 130,
        "contract": "contracts/SimplePixel.sol:SimplePixel",
        "label": "_balances",
        "offset": 0,
        "slot": "0",
        "type": "t_mapping(t_uint256,t_mapping(t_address,t_uint256))"
      },
      {
        "astId": 136,
        "contract": "contracts/SimplePixel.sol:SimplePixel",
        "label": "_operatorApprovals",
        "offset": 0,
        "slot": "1",
        "type": "t_mapping(t_address,t_mapping(t_address,t_bool))"
      },
      {
        "astId": 138,
        "contract": "contracts/SimplePixel.sol:SimplePixel",
        "label": "_uri",
        "offset": 0,
        "slot": "2",
        "type": "t_string_storage"
      },
      {
        "astId": 7,
        "contract": "contracts/SimplePixel.sol:SimplePixel",
        "label": "_owner",
        "offset": 0,
        "slot": "3",
        "type": "t_address"
      },
      {
        "astId": 2034,
        "contract": "contracts/SimplePixel.sol:SimplePixel",
        "label": "maxPixels",
        "offset": 0,
        "slot": "4",
        "type": "t_uint256"
      },
      {
        "astId": 2037,
        "contract": "contracts/SimplePixel.sol:SimplePixel",
        "label": "pixels",
        "offset": 0,
        "slot": "5",
        "type": "t_uint256"
      },
      {
        "astId": 2039,
        "contract": "contracts/SimplePixel.sol:SimplePixel",
        "label": "baseUrl",
        "offset": 0,
        "slot": "6",
        "type": "t_string_storage"
      },
      {
        "astId": 2050,
        "contract": "contracts/SimplePixel.sol:SimplePixel",
        "label": "mintFee",
        "offset": 0,
        "slot": "7",
        "type": "t_uint256"
      },
      {
        "astId": 2052,
        "contract": "contracts/SimplePixel.sol:SimplePixel",
        "label": "minMintFee",
        "offset": 0,
        "slot": "8",
        "type": "t_uint256"
      },
      {
        "astId": 2054,
        "contract": "contracts/SimplePixel.sol:SimplePixel",
        "label": "bulkDiscount",
        "offset": 0,
        "slot": "9",
        "type": "t_uint256"
      }
    ],
    "types": {
      "t_address": {
        "encoding": "inplace",
        "label": "address",
        "numberOfBytes": "20"
      },
      "t_bool": {
        "encoding": "inplace",
        "label": "bool",
        "numberOfBytes": "1"
      },
      "t_mapping(t_address,t_bool)": {
        "encoding": "mapping",
        "key": "t_address",
        "label": "mapping(address => bool)",
        "numberOfBytes": "32",
        "value": "t_bool"
      },
      "t_mapping(t_address,t_mapping(t_address,t_bool))": {
        "encoding": "mapping",
        "key": "t_address",
        "label": "mapping(address => mapping(address => bool))",
        "numberOfBytes": "32",
        "value": "t_mapping(t_address,t_bool)"
      },
      "t_mapping(t_address,t_uint256)": {
        "encoding": "mapping",
        "key": "t_address",
        "label": "mapping(address => uint256)",
        "numberOfBytes": "32",
        "value": "t_uint256"
      },
      "t_mapping(t_uint256,t_mapping(t_address,t_uint256))": {
        "encoding": "mapping",
        "key": "t_uint256",
        "label": "mapping(uint256 => mapping(address => uint256))",
        "numberOfBytes": "32",
        "value": "t_mapping(t_address,t_uint256)"
      },
      "t_string_storage": {
        "encoding": "bytes",
        "label": "string",
        "numberOfBytes": "32"
      },
      "t_uint256": {
        "encoding": "inplace",
        "label": "uint256",
        "numberOfBytes": "32"
      }
    }
  }
}